{
  "contractName": "CWLootBox",
  "abi": [
    {
      "inputs": [
        {
          "internalType": "string",
          "name": "_name",
          "type": "string"
        },
        {
          "internalType": "string",
          "name": "_symbol",
          "type": "string"
        },
        {
          "internalType": "string",
          "name": "_baseURI",
          "type": "string"
        },
        {
          "internalType": "contract ICWERC1155",
          "name": "_cwCards",
          "type": "address"
        },
        {
          "internalType": "address",
          "name": "_proxyRegistryAddress",
          "type": "address"
        },
        {
          "internalType": "address",
          "name": "_vrfCoordinator",
          "type": "address"
        },
        {
          "internalType": "address",
          "name": "_link",
          "type": "address"
        },
        {
          "internalType": "bytes32",
          "name": "_keyhash",
          "type": "bytes32"
        },
        {
          "internalType": "uint256",
          "name": "_linkFee",
          "type": "uint256"
        }
      ],
      "stateMutability": "nonpayable",
      "type": "constructor"
    },
    {
      "inputs": [],
      "name": "AlreadyInitialized",
      "type": "error"
    },
    {
      "inputs": [
        {
          "internalType": "uint256",
          "name": "id",
          "type": "uint256"
        }
      ],
      "name": "BoxCapped",
      "type": "error"
    },
    {
      "inputs": [
        {
          "internalType": "address",
          "name": "sender",
          "type": "address"
        }
      ],
      "name": "CWCardsSame",
      "type": "error"
    },
    {
      "inputs": [
        {
          "internalType": "uint256",
          "name": "id",
          "type": "uint256"
        }
      ],
      "name": "IncorrectBoxId",
      "type": "error"
    },
    {
      "inputs": [],
      "name": "NoNewBoxes",
      "type": "error"
    },
    {
      "inputs": [
        {
          "internalType": "address",
          "name": "sender",
          "type": "address"
        }
      ],
      "name": "RandomnessNotCreated",
      "type": "error"
    },
    {
      "anonymous": false,
      "inputs": [
        {
          "indexed": true,
          "internalType": "address",
          "name": "account",
          "type": "address"
        },
        {
          "indexed": true,
          "internalType": "address",
          "name": "operator",
          "type": "address"
        },
        {
          "indexed": false,
          "internalType": "bool",
          "name": "approved",
          "type": "bool"
        }
      ],
      "name": "ApprovalForAll",
      "type": "event"
    },
    {
      "anonymous": false,
      "inputs": [
        {
          "indexed": false,
          "internalType": "address",
          "name": "oldContract",
          "type": "address"
        },
        {
          "indexed": false,
          "internalType": "address",
          "name": "newContract",
          "type": "address"
        }
      ],
      "name": "CWCardsUpdated",
      "type": "event"
    },
    {
      "anonymous": false,
      "inputs": [
        {
          "indexed": true,
          "internalType": "address",
          "name": "previousOwner",
          "type": "address"
        },
        {
          "indexed": true,
          "internalType": "address",
          "name": "newOwner",
          "type": "address"
        }
      ],
      "name": "OwnershipTransferred",
      "type": "event"
    },
    {
      "anonymous": false,
      "inputs": [
        {
          "indexed": false,
          "internalType": "bytes32",
          "name": "requestId",
          "type": "bytes32"
        }
      ],
      "name": "RandomnessFulfilled",
      "type": "event"
    },
    {
      "anonymous": false,
      "inputs": [
        {
          "indexed": false,
          "internalType": "address",
          "name": "sender",
          "type": "address"
        },
        {
          "indexed": false,
          "internalType": "bytes32",
          "name": "requestId",
          "type": "bytes32"
        }
      ],
      "name": "RandomnessInitiated",
      "type": "event"
    },
    {
      "anonymous": false,
      "inputs": [
        {
          "indexed": true,
          "internalType": "address",
          "name": "operator",
          "type": "address"
        },
        {
          "indexed": true,
          "internalType": "address",
          "name": "from",
          "type": "address"
        },
        {
          "indexed": true,
          "internalType": "address",
          "name": "to",
          "type": "address"
        },
        {
          "indexed": false,
          "internalType": "uint256[]",
          "name": "ids",
          "type": "uint256[]"
        },
        {
          "indexed": false,
          "internalType": "uint256[]",
          "name": "values",
          "type": "uint256[]"
        }
      ],
      "name": "TransferBatch",
      "type": "event"
    },
    {
      "anonymous": false,
      "inputs": [
        {
          "indexed": true,
          "internalType": "address",
          "name": "operator",
          "type": "address"
        },
        {
          "indexed": true,
          "internalType": "address",
          "name": "from",
          "type": "address"
        },
        {
          "indexed": true,
          "internalType": "address",
          "name": "to",
          "type": "address"
        },
        {
          "indexed": false,
          "internalType": "uint256",
          "name": "id",
          "type": "uint256"
        },
        {
          "indexed": false,
          "internalType": "uint256",
          "name": "value",
          "type": "uint256"
        }
      ],
      "name": "TransferSingle",
      "type": "event"
    },
    {
      "anonymous": false,
      "inputs": [
        {
          "indexed": false,
          "internalType": "string",
          "name": "value",
          "type": "string"
        },
        {
          "indexed": true,
          "internalType": "uint256",
          "name": "id",
          "type": "uint256"
        }
      ],
      "name": "URI",
      "type": "event"
    },
    {
      "inputs": [],
      "name": "CWCards",
      "outputs": [
        {
          "internalType": "contract ICWERC1155",
          "name": "",
          "type": "address"
        }
      ],
      "stateMutability": "view",
      "type": "function",
      "constant": true
    },
    {
      "inputs": [
        {
          "internalType": "address",
          "name": "account",
          "type": "address"
        },
        {
          "internalType": "uint256",
          "name": "id",
          "type": "uint256"
        }
      ],
      "name": "balanceOf",
      "outputs": [
        {
          "internalType": "uint256",
          "name": "",
          "type": "uint256"
        }
      ],
      "stateMutability": "view",
      "type": "function",
      "constant": true
    },
    {
      "inputs": [
        {
          "internalType": "address[]",
          "name": "accounts",
          "type": "address[]"
        },
        {
          "internalType": "uint256[]",
          "name": "ids",
          "type": "uint256[]"
        }
      ],
      "name": "balanceOfBatch",
      "outputs": [
        {
          "internalType": "uint256[]",
          "name": "",
          "type": "uint256[]"
        }
      ],
      "stateMutability": "view",
      "type": "function",
      "constant": true
    },
    {
      "inputs": [
        {
          "internalType": "address",
          "name": "_to",
          "type": "address"
        },
        {
          "internalType": "uint256[]",
          "name": "_ids",
          "type": "uint256[]"
        },
        {
          "internalType": "uint256[]",
          "name": "_quantities",
          "type": "uint256[]"
        },
        {
          "internalType": "bytes",
          "name": "_data",
          "type": "bytes"
        }
      ],
      "name": "batchMint",
      "outputs": [],
      "stateMutability": "nonpayable",
      "type": "function"
    },
    {
      "inputs": [
        {
          "internalType": "address",
          "name": "account",
          "type": "address"
        },
        {
          "internalType": "uint256",
          "name": "id",
          "type": "uint256"
        },
        {
          "internalType": "uint256",
          "name": "value",
          "type": "uint256"
        }
      ],
      "name": "burn",
      "outputs": [],
      "stateMutability": "nonpayable",
      "type": "function"
    },
    {
      "inputs": [
        {
          "internalType": "address",
          "name": "account",
          "type": "address"
        },
        {
          "internalType": "uint256[]",
          "name": "ids",
          "type": "uint256[]"
        },
        {
          "internalType": "uint256[]",
          "name": "values",
          "type": "uint256[]"
        }
      ],
      "name": "burnBatch",
      "outputs": [],
      "stateMutability": "nonpayable",
      "type": "function"
    },
    {
      "inputs": [
        {
          "internalType": "uint256",
          "name": "",
          "type": "uint256"
        }
      ],
      "name": "cardCaps",
      "outputs": [
        {
          "internalType": "uint32",
          "name": "",
          "type": "uint32"
        }
      ],
      "stateMutability": "view",
      "type": "function",
      "constant": true
    },
    {
      "inputs": [
        {
          "internalType": "uint256",
          "name": "",
          "type": "uint256"
        }
      ],
      "name": "creators",
      "outputs": [
        {
          "internalType": "address",
          "name": "",
          "type": "address"
        }
      ],
      "stateMutability": "view",
      "type": "function",
      "constant": true
    },
    {
      "inputs": [],
      "name": "getRandomNumber",
      "outputs": [
        {
          "internalType": "bytes32",
          "name": "requestId",
          "type": "bytes32"
        }
      ],
      "stateMutability": "nonpayable",
      "type": "function"
    },
    {
      "inputs": [
        {
          "internalType": "address",
          "name": "_owner",
          "type": "address"
        },
        {
          "internalType": "address",
          "name": "_operator",
          "type": "address"
        }
      ],
      "name": "isApprovedForAll",
      "outputs": [
        {
          "internalType": "bool",
          "name": "isOperator",
          "type": "bool"
        }
      ],
      "stateMutability": "view",
      "type": "function",
      "constant": true
    },
    {
      "inputs": [
        {
          "internalType": "uint256",
          "name": "",
          "type": "uint256"
        }
      ],
      "name": "mintedCards",
      "outputs": [
        {
          "internalType": "uint32",
          "name": "",
          "type": "uint32"
        }
      ],
      "stateMutability": "view",
      "type": "function",
      "constant": true
    },
    {
      "inputs": [
        {
          "internalType": "uint256",
          "name": "",
          "type": "uint256"
        }
      ],
      "name": "mintedChars",
      "outputs": [
        {
          "internalType": "uint32",
          "name": "",
          "type": "uint32"
        }
      ],
      "stateMutability": "view",
      "type": "function",
      "constant": true
    },
    {
      "inputs": [],
      "name": "name",
      "outputs": [
        {
          "internalType": "string",
          "name": "",
          "type": "string"
        }
      ],
      "stateMutability": "view",
      "type": "function",
      "constant": true
    },
    {
      "inputs": [],
      "name": "owner",
      "outputs": [
        {
          "internalType": "address",
          "name": "",
          "type": "address"
        }
      ],
      "stateMutability": "view",
      "type": "function",
      "constant": true
    },
    {
      "inputs": [
        {
          "internalType": "bytes32",
          "name": "requestId",
          "type": "bytes32"
        },
        {
          "internalType": "uint256",
          "name": "randomness",
          "type": "uint256"
        }
      ],
      "name": "rawFulfillRandomness",
      "outputs": [],
      "stateMutability": "nonpayable",
      "type": "function"
    },
    {
      "inputs": [],
      "name": "renounceOwnership",
      "outputs": [],
      "stateMutability": "nonpayable",
      "type": "function"
    },
    {
      "inputs": [
        {
          "internalType": "address",
          "name": "from",
          "type": "address"
        },
        {
          "internalType": "address",
          "name": "to",
          "type": "address"
        },
        {
          "internalType": "uint256[]",
          "name": "ids",
          "type": "uint256[]"
        },
        {
          "internalType": "uint256[]",
          "name": "amounts",
          "type": "uint256[]"
        },
        {
          "internalType": "bytes",
          "name": "data",
          "type": "bytes"
        }
      ],
      "name": "safeBatchTransferFrom",
      "outputs": [],
      "stateMutability": "nonpayable",
      "type": "function"
    },
    {
      "inputs": [
        {
          "internalType": "address",
          "name": "from",
          "type": "address"
        },
        {
          "internalType": "address",
          "name": "to",
          "type": "address"
        },
        {
          "internalType": "uint256",
          "name": "id",
          "type": "uint256"
        },
        {
          "internalType": "uint256",
          "name": "amount",
          "type": "uint256"
        },
        {
          "internalType": "bytes",
          "name": "data",
          "type": "bytes"
        }
      ],
      "name": "safeTransferFrom",
      "outputs": [],
      "stateMutability": "nonpayable",
      "type": "function"
    },
    {
      "inputs": [
        {
          "internalType": "address",
          "name": "operator",
          "type": "address"
        },
        {
          "internalType": "bool",
          "name": "approved",
          "type": "bool"
        }
      ],
      "name": "setApprovalForAll",
      "outputs": [],
      "stateMutability": "nonpayable",
      "type": "function"
    },
    {
      "inputs": [
        {
          "internalType": "string",
          "name": "_newBaseMetadataURI",
          "type": "string"
        }
      ],
      "name": "setBaseMetadataURI",
      "outputs": [],
      "stateMutability": "nonpayable",
      "type": "function"
    },
    {
      "inputs": [
        {
          "internalType": "address",
          "name": "_to",
          "type": "address"
        },
        {
          "internalType": "uint256[]",
          "name": "_ids",
          "type": "uint256[]"
        }
      ],
      "name": "setCreator",
      "outputs": [],
      "stateMutability": "nonpayable",
      "type": "function"
    },
    {
      "inputs": [
        {
          "internalType": "bytes4",
          "name": "interfaceId",
          "type": "bytes4"
        }
      ],
      "name": "supportsInterface",
      "outputs": [
        {
          "internalType": "bool",
          "name": "",
          "type": "bool"
        }
      ],
      "stateMutability": "view",
      "type": "function",
      "constant": true
    },
    {
      "inputs": [],
      "name": "symbol",
      "outputs": [
        {
          "internalType": "string",
          "name": "",
          "type": "string"
        }
      ],
      "stateMutability": "view",
      "type": "function",
      "constant": true
    },
    {
      "inputs": [
        {
          "internalType": "uint256",
          "name": "",
          "type": "uint256"
        }
      ],
      "name": "tokenSupply",
      "outputs": [
        {
          "internalType": "uint256",
          "name": "",
          "type": "uint256"
        }
      ],
      "stateMutability": "view",
      "type": "function",
      "constant": true
    },
    {
      "inputs": [],
      "name": "totalCharacters",
      "outputs": [
        {
          "internalType": "uint8",
          "name": "",
          "type": "uint8"
        }
      ],
      "stateMutability": "view",
      "type": "function",
      "constant": true
    },
    {
      "inputs": [
        {
          "internalType": "uint256",
          "name": "_id",
          "type": "uint256"
        }
      ],
      "name": "totalSupply",
      "outputs": [
        {
          "internalType": "uint256",
          "name": "",
          "type": "uint256"
        }
      ],
      "stateMutability": "view",
      "type": "function",
      "constant": true
    },
    {
      "inputs": [
        {
          "internalType": "address",
          "name": "newOwner",
          "type": "address"
        }
      ],
      "name": "transferOwnership",
      "outputs": [],
      "stateMutability": "nonpayable",
      "type": "function"
    },
    {
      "inputs": [
        {
          "internalType": "uint256",
          "name": "",
          "type": "uint256"
        }
      ],
      "name": "typeCaps",
      "outputs": [
        {
          "internalType": "uint32",
          "name": "",
          "type": "uint32"
        }
      ],
      "stateMutability": "view",
      "type": "function",
      "constant": true
    },
    {
      "inputs": [
        {
          "internalType": "uint8",
          "name": "",
          "type": "uint8"
        },
        {
          "internalType": "uint256",
          "name": "",
          "type": "uint256"
        }
      ],
      "name": "typeChances",
      "outputs": [
        {
          "internalType": "uint24",
          "name": "",
          "type": "uint24"
        }
      ],
      "stateMutability": "view",
      "type": "function",
      "constant": true
    },
    {
      "inputs": [
        {
          "internalType": "uint256",
          "name": "_id",
          "type": "uint256"
        }
      ],
      "name": "uri",
      "outputs": [
        {
          "internalType": "string",
          "name": "",
          "type": "string"
        }
      ],
      "stateMutability": "view",
      "type": "function",
      "constant": true
    },
    {
      "inputs": [
        {
          "internalType": "uint256",
          "name": "amount",
          "type": "uint256"
        }
      ],
      "name": "withdrawLink",
      "outputs": [],
      "stateMutability": "nonpayable",
      "type": "function"
    },
    {
      "inputs": [],
      "name": "initializer",
      "outputs": [],
      "stateMutability": "nonpayable",
      "type": "function"
    },
    {
      "inputs": [
        {
          "internalType": "contract ICWERC1155",
          "name": "cards",
          "type": "address"
        }
      ],
      "name": "setCWCards",
      "outputs": [],
      "stateMutability": "nonpayable",
      "type": "function"
    },
    {
      "inputs": [
        {
          "internalType": "uint256",
          "name": "tokenId",
          "type": "uint256"
        },
        {
          "internalType": "uint256",
          "name": "quantity",
          "type": "uint256"
        }
      ],
      "name": "unwrap",
      "outputs": [],
      "stateMutability": "nonpayable",
      "type": "function"
    },
    {
      "inputs": [
        {
          "internalType": "uint256",
          "name": "tokenId",
          "type": "uint256"
        }
      ],
      "name": "unwrap",
      "outputs": [],
      "stateMutability": "nonpayable",
      "type": "function"
    },
    {
      "inputs": [
        {
          "internalType": "address",
          "name": "",
          "type": "address"
        },
        {
          "internalType": "uint256",
          "name": "",
          "type": "uint256"
        },
        {
          "internalType": "string",
          "name": "",
          "type": "string"
        },
        {
          "internalType": "bytes",
          "name": "",
          "type": "bytes"
        }
      ],
      "name": "create",
      "outputs": [
        {
          "internalType": "uint256",
          "name": "",
          "type": "uint256"
        }
      ],
      "stateMutability": "nonpayable",
      "type": "function"
    },
    {
      "inputs": [
        {
          "internalType": "address",
          "name": "_to",
          "type": "address"
        },
        {
          "internalType": "uint256",
          "name": "_id",
          "type": "uint256"
        },
        {
          "internalType": "uint256",
          "name": "_quantity",
          "type": "uint256"
        },
        {
          "internalType": "bytes",
          "name": "_data",
          "type": "bytes"
        }
      ],
      "name": "mint",
      "outputs": [],
      "stateMutability": "nonpayable",
      "type": "function"
    }
  ],
  "bytecode": "0x60c060405260006006553480156200001657600080fd5b5060405162005d1c38038062005d1c8339810160408190526200003991620002e7565b6001600160a01b0380851660a0528316608052838383838c8c8c8b816200006081620000ec565b506200006c3362000105565b83516200008190600990602087019062000157565b5082516200009790600a90602086019062000157565b50600580546001600160a01b03199081166001600160a01b0393841617909155601096909655601194909455505060016014555060158054909216991698909817909755506200041498505050505050505050565b80516200010190600390602084019062000157565b5050565b600480546001600160a01b038381166001600160a01b0319831681179093556040519116919082907f8be0079c531659141344cd1fd0a4f28419497f9722a3daafe3b4186f6b6457e090600090a35050565b8280546200016590620003d7565b90600052602060002090601f016020900481019282620001895760008555620001d4565b82601f10620001a457805160ff1916838001178555620001d4565b82800160010185558215620001d4579182015b82811115620001d4578251825591602001919060010190620001b7565b50620001e2929150620001e6565b5090565b5b80821115620001e25760008155600101620001e7565b634e487b7160e01b600052604160045260246000fd5b600082601f8301126200022557600080fd5b81516001600160401b0380821115620002425762000242620001fd565b604051601f8301601f19908116603f011681019082821181831017156200026d576200026d620001fd565b816040528381526020925086838588010111156200028a57600080fd5b600091505b83821015620002ae57858201830151818301840152908201906200028f565b83821115620002c05760008385830101525b9695505050505050565b80516001600160a01b0381168114620002e257600080fd5b919050565b60008060008060008060008060006101208a8c0312156200030757600080fd5b89516001600160401b03808211156200031f57600080fd5b6200032d8d838e0162000213565b9a5060208c01519150808211156200034457600080fd5b620003528d838e0162000213565b995060408c01519150808211156200036957600080fd5b50620003788c828d0162000213565b9750506200038960608b01620002ca565b95506200039960808b01620002ca565b9450620003a960a08b01620002ca565b9350620003b960c08b01620002ca565b925060e08a015191506101008a015190509295985092959850929598565b600181811c90821680620003ec57607f821691505b602082108114156200040e57634e487b7160e01b600052602260045260246000fd5b50919050565b60805160a0516158cd6200044f60003960008181611b1c01526136310152600081816119f101528181611ef001526135f501526158cd6000f3fe608060405234801561001057600080fd5b50600436106102765760003560e01c806394985ddd11610160578063d2a6b51a116100d8578063e985e9c51161008c578063f2fde38b11610071578063f2fde38b146105ae578063f4c1572c146105c1578063f5298aca146105e857600080fd5b8063e985e9c514610588578063f242432a1461059b57600080fd5b8063dbdff2c1116100bd578063dbdff2c11461055a578063de0e9a3e14610562578063e38e3b241461057557600080fd5b8063d2a6b51a14610534578063d2d05a721461054757600080fd5b8063a22cb4651161012f578063b48ab8b611610114578063b48ab8b6146104cb578063bd85b039146104de578063cd53d08e146104fe57600080fd5b8063a22cb46514610498578063a720162e146104ab57600080fd5b806394985ddd1461046257806395d89b41146104755780639ce110d71461047d5780639d9b61171461048557600080fd5b80636394344b116101f3578063715018a6116101c25780637a8042bd116101a75780637a8042bd146103fd5780637e518ec8146104105780638da5cb5b1461042357600080fd5b8063715018a6146103e2578063731133e9146103ea57600080fd5b80636394344b1461038f57806368f893e6146103a95780636b20c454146103bc5780636e286671146103cf57600080fd5b80632693ebf21161024a5780633d1cabd11161022f5780633d1cabd1146103215780634e1273f4146103495780634e7577c51461036957600080fd5b80632693ebf2146102ec5780632eb2c2d61461030c57600080fd5b8062fdd58e1461027b57806301ffc9a7146102a157806306fdde03146102c45780630e89341c146102d9575b600080fd5b61028e610289366004614b4f565b6105fb565b6040519081526020015b60405180910390f35b6102b46102af366004614ba9565b6106dd565b6040519015158152602001610298565b6102cc6107c0565b6040516102989190614c31565b6102cc6102e7366004614c44565b61084e565b61028e6102fa366004614c44565b60086020526000908152604090205481565b61031f61031a366004614e08565b61091c565b005b61033461032f366004614c44565b6109e5565b60405163ffffffff9091168152602001610298565b61035c610357366004614eb6565b610a15565b6040516102989190614fbe565b610334610377366004614c44565b600e6020526000908152604090205463ffffffff1681565b610397606481565b60405160ff9091168152602001610298565b61031f6103b7366004614fd1565b610b6d565b61031f6103ca366004614fee565b610cf6565b61031f6103dd366004615064565b610dbb565b61031f611761565b61031f6103f8366004615086565b6117ee565b61031f61040b366004614c44565b61193b565b61031f61041e3660046150e9565b611a77565b60045473ffffffffffffffffffffffffffffffffffffffff165b60405173ffffffffffffffffffffffffffffffffffffffff9091168152602001610298565b61031f610470366004615064565b611b04565b6102cc611bad565b61031f611bba565b610334610493366004614c44565b611c43565b61031f6104a6366004615140565b611c53565b60155461043d9073ffffffffffffffffffffffffffffffffffffffff1681565b61031f6104d9366004615179565b611c5e565b61028e6104ec366004614c44565b60009081526008602052604090205490565b61043d61050c366004614c44565b60076020526000908152604090205473ffffffffffffffffffffffffffffffffffffffff1681565b61031f610542366004615208565b611dab565b610334610555366004614c44565b611e95565b61028e611ea6565b61031f610570366004614c44565b61200e565b61028e610583366004615297565b612019565b6102b4610596366004615323565b6120cf565b61031f6105a9366004615351565b6121d0565b61031f6105bc366004614fd1565b612292565b6105d46105cf3660046153ba565b6123bf565b60405162ffffff9091168152602001610298565b61031f6105f63660046153de565b612407565b600073ffffffffffffffffffffffffffffffffffffffff83166106a5576040517f08c379a000000000000000000000000000000000000000000000000000000000815260206004820152602b60248201527f455243313135353a2062616c616e636520717565727920666f7220746865207a60448201527f65726f206164647265737300000000000000000000000000000000000000000060648201526084015b60405180910390fd5b50600081815260016020908152604080832073ffffffffffffffffffffffffffffffffffffffff861684529091529020545b92915050565b60007fffffffff0000000000000000000000000000000000000000000000000000000082167fd9b67a2600000000000000000000000000000000000000000000000000000000148061077057507fffffffff0000000000000000000000000000000000000000000000000000000082167f0e89341c00000000000000000000000000000000000000000000000000000000145b806106d757507f01ffc9a7000000000000000000000000000000000000000000000000000000007fffffffff000000000000000000000000000000000000000000000000000000008316146106d7565b600980546107cd90615413565b80601f01602080910402602001604051908101604052809291908181526020018280546107f990615413565b80156108465780601f1061081b57610100808354040283529160200191610846565b820191906000526020600020905b81548152906001019060200180831161082957829003601f168201915b505050505081565b60008181526007602052604090205460609073ffffffffffffffffffffffffffffffffffffffff16610902576040517f08c379a000000000000000000000000000000000000000000000000000000000815260206004820152602560248201527f4552433732315472616461626c65237572693a204e4f4e4558495354454e545f60448201527f544f4b454e000000000000000000000000000000000000000000000000000000606482015260840161069c565b6106d761090e836124c7565b6109178461255b565b6126a3565b73ffffffffffffffffffffffffffffffffffffffff8516331480610945575061094585336120cf565b6109d1576040517f08c379a000000000000000000000000000000000000000000000000000000000815260206004820152603260248201527f455243313135353a207472616e736665722063616c6c6572206973206e6f742060448201527f6f776e6572206e6f7220617070726f7665640000000000000000000000000000606482015260840161069c565b6109de85858585856126e6565b5050505050565b601681601081106109f557600080fd5b60089182820401919006600402915054906101000a900463ffffffff1681565b60608151835114610aa8576040517f08c379a000000000000000000000000000000000000000000000000000000000815260206004820152602960248201527f455243313135353a206163636f756e747320616e6420696473206c656e67746860448201527f206d69736d617463680000000000000000000000000000000000000000000000606482015260840161069c565b6000835167ffffffffffffffff811115610ac457610ac4614c5d565b604051908082528060200260200182016040528015610aed578160200160208202803683370190505b50905060005b8451811015610b6557610b38858281518110610b1157610b11615467565b6020026020010151858381518110610b2b57610b2b615467565b60200260200101516105fb565b828281518110610b4a57610b4a615467565b6020908102919091010152610b5e816154c5565b9050610af3565b509392505050565b60045473ffffffffffffffffffffffffffffffffffffffff163314610bee576040517f08c379a000000000000000000000000000000000000000000000000000000000815260206004820181905260248201527f4f776e61626c653a2063616c6c6572206973206e6f7420746865206f776e6572604482015260640161069c565b60155473ffffffffffffffffffffffffffffffffffffffff82811691161415610c5b576040517f45a64a6500000000000000000000000000000000000000000000000000000000815273ffffffffffffffffffffffffffffffffffffffff8216600482015260240161069c565b6015546040805173ffffffffffffffffffffffffffffffffffffffff928316815291831660208301527f48045e4f8846f0c0aab401b1c56d8f479dd13c74af56546aa2dd3cb2ceee031d910160405180910390a1601580547fffffffffffffffffffffffff00000000000000000000000000000000000000001673ffffffffffffffffffffffffffffffffffffffff92909216919091179055565b73ffffffffffffffffffffffffffffffffffffffff8316331480610d1f5750610d1f83336120cf565b610dab576040517f08c379a000000000000000000000000000000000000000000000000000000000815260206004820152602960248201527f455243313135353a2063616c6c6572206973206e6f74206f776e6572206e6f7260448201527f20617070726f7665640000000000000000000000000000000000000000000000606482015260840161069c565b610db6838383612a23565b505050565b60026014541415610e28576040517f08c379a000000000000000000000000000000000000000000000000000000000815260206004820152601f60248201527f5265656e7472616e637947756172643a207265656e7472616e742063616c6c00604482015260640161069c565b600260145560155473ffffffffffffffffffffffffffffffffffffffff16610eac576040517f08c379a000000000000000000000000000000000000000000000000000000000815260206004820152601460248201527f4e465420636f6e7472616374206e6f7420736574000000000000000000000000604482015260640161069c565b6015543360008181526013602052604090205473ffffffffffffffffffffffffffffffffffffffff9092169180610f27576040517f37ad62a500000000000000000000000000000000000000000000000000000000815273ffffffffffffffffffffffffffffffffffffffff8316600482015260240161069c565b73ffffffffffffffffffffffffffffffffffffffff8216600090815260136020526040812055610f5982866001612407565b6000818152601260205260408120549081610fb8576040517f37ad62a500000000000000000000000000000000000000000000000000000000815273ffffffffffffffffffffffffffffffffffffffff8516600482015260240161069c565b600083815260126020908152604080832083905560ff8a168352600b82528083208054825181850281018501909352808352919290919083018282801561104857602002820191906000526020600020906000905b82829054906101000a900462ffffff1662ffffff168152602001906003019060208260020104928301926001038202915080841161100d5790505b50505050509050600080600090505b888160ff1610156117505760005b60048160ff16101561173d576000805b85518160ff16101561143557858160ff168151811061109657611096615467565b60209081029190910101519150620fffff600483901c1688886110b8816154c5565b99506040516020016110d4929190918252602082015260400190565b604080517fffffffffffffffffffffffffffffffffffffffffffffffffffffffffffffffe081840301815291905280516020909101209550600061111a6127108861552d565b611125906001615541565b905062ffffff8216611138575050611423565b8162ffffff168110801561120e57506040805161020081019182905261120c91601690601090826000855b82829054906101000a900463ffffffff1663ffffffff1681526020019060040190602082600301049283019260010382029150808411611163575050604080516102008101918290529450600c9350601092509050826000855b82829054906101000a900463ffffffff1663ffffffff16815260200190600401906020826003010492830192600103820291508084116111bd57505062ffffff8b169594935050612d3f915050565b155b156114205761121b614926565b62ffffff85168152600160006112318683615559565b90505b60108160ff1610156113925760008b8260ff168151811061125757611257615467565b60209081029190910101519050620fffff600482901c1662ffffff871614158061134157506040805161020081019182905261134191601690601090826000855b82829054906101000a900463ffffffff1663ffffffff1681526020019060040190602082600301049283019260010382029150808411611298575050604080516102008101918290529450600c9350601092509050826000855b82829054906101000a900463ffffffff1663ffffffff16815260200190600401906020826003010492830192600103820291508084116112f257505062ffffff88169594935050612d3f915050565b1561134c5750611392565b80848460ff166005811061136257611362615467565b62ffffff90921660209290920201528261137b8161557e565b93505050808061138a9061557e565b915050611234565b508b8b61139e816154c5565b9c506040516020016113ba929190918252602082015260400190565b604080517fffffffffffffffffffffffffffffffffffffffffffffffffffffffffffffffe0818403018152919052805160209091012098508161140060ff83168b61552d565b6005811061141057611410615467565b6020020151955050505050611435565b50505b8061142d8161557e565b915050611075565b5060005b8787611444816154c5565b9850604051602001611460929190918252602082015260400190565b604080517fffffffffffffffffffffffffffffffffffffffffffffffffffffffffffffffe0818403018152919052805160209091012094506114a360648661552d565b6040805161c80081019182905291925061156f91839160189061064090826000855b82829054906101000a900463ffffffff1663ffffffff16815260200190600401906020826003010492830192600103820291508084116114c5575050604080516102008101918290529450600c9350601092509050826000855b82829054906101000a900463ffffffff1663ffffffff168152602001906004019060208260030104928301926001038202915080841161151f57505062ffffff8a16969594935050612d8a915050565b15611439576016600f83166010811061158a5761158a615467565b6008918282040191900660040281819054906101000a900463ffffffff16809291906115b59061559e565b91906101000a81548163ffffffff021916908363ffffffff1602179055505060186115ee828462ffffff16612dec90919063ffffffff16565b61ffff16610640811061160357611603615467565b6008918282040191900660040281819054906101000a900463ffffffff168092919061162e9061559e565b91906101000a81548163ffffffff021916908363ffffffff160217905550508a73ffffffffffffffffffffffffffffffffffffffff166397255d038b6116798562ffffff16600c1690565b600386166040517fffffffff0000000000000000000000000000000000000000000000000000000060e086901b16815273ffffffffffffffffffffffffffffffffffffffff909316600484015260ff918216602484015281166044830152841660648201526001608482015260c060a4820152600060c482015260e401600060405180830381600087803b15801561171057600080fd5b505af1158015611724573d6000803e3d6000fd5b50505050505080806117359061557e565b915050611065565b50806117488161557e565b915050611057565b505060016014555050505050505050565b60045473ffffffffffffffffffffffffffffffffffffffff1633146117e2576040517f08c379a000000000000000000000000000000000000000000000000000000000815260206004820181905260248201527f4f776e61626c653a2063616c6c6572206973206e6f7420746865206f776e6572604482015260640161069c565b6117ec6000612dfc565b565b60045473ffffffffffffffffffffffffffffffffffffffff16331461186f576040517f08c379a000000000000000000000000000000000000000000000000000000000815260206004820181905260248201527f4f776e61626c653a2063616c6c6572206973206e6f7420746865206f776e6572604482015260640161069c565b600183108061187e5750600283115b156118b8576040517f3a37b86a0000000000000000000000000000000000000000000000000000000081526004810184905260240161069c565b6000838152600e602052604090205463ffffffff16826118e48560009081526008602052604090205490565b6118ee9190615541565b1115611929576040517f22c158d70000000000000000000000000000000000000000000000000000000081526004810184905260240161069c565b61193584848484612e73565b50505050565b60045473ffffffffffffffffffffffffffffffffffffffff1633146119bc576040517f08c379a000000000000000000000000000000000000000000000000000000000815260206004820181905260248201527f4f776e61626c653a2063616c6c6572206973206e6f7420746865206f776e6572604482015260640161069c565b6040517fa9059cbb000000000000000000000000000000000000000000000000000000008152336004820152602481018290527f000000000000000000000000000000000000000000000000000000000000000073ffffffffffffffffffffffffffffffffffffffff169063a9059cbb906044016020604051808303816000875af1158015611a4f573d6000803e3d6000fd5b505050506040513d601f19601f82011682018060405250810190611a7391906155c2565b5050565b60045473ffffffffffffffffffffffffffffffffffffffff163314611af8576040517f08c379a000000000000000000000000000000000000000000000000000000000815260206004820181905260248201527f4f776e61626c653a2063616c6c6572206973206e6f7420746865206f776e6572604482015260640161069c565b611b0181612f29565b50565b3373ffffffffffffffffffffffffffffffffffffffff7f00000000000000000000000000000000000000000000000000000000000000001614611ba3576040517f08c379a000000000000000000000000000000000000000000000000000000000815260206004820152601f60248201527f4f6e6c7920565246436f6f7264696e61746f722063616e2066756c66696c6c00604482015260640161069c565b611a738282612f3c565b600a80546107cd90615413565b60045473ffffffffffffffffffffffffffffffffffffffff163314611c3b576040517f08c379a000000000000000000000000000000000000000000000000000000000815260206004820181905260248201527f4f776e61626c653a2063616c6c6572206973206e6f7420746865206f776e6572604482015260640161069c565b6117ec612f8b565b600c81601081106109f557600080fd5b611a7333838361311a565b60005b8351811015611d9e576000848281518110611c7e57611c7e615467565b6020908102919091018101516000818152600790925260409091205490915073ffffffffffffffffffffffffffffffffffffffff163314611d41576040517f08c379a000000000000000000000000000000000000000000000000000000000815260206004820152602f60248201527f455243313135355472616461626c652362617463684d696e743a204f4e4c595f60448201527f43524541544f525f414c4c4f5745440000000000000000000000000000000000606482015260840161069c565b6000848381518110611d5557611d55615467565b6020026020010151905080600860008481526020019081526020016000206000828254611d829190615541565b9250508190555050508080611d96906154c5565b915050611c61565b506119358484848461326e565b73ffffffffffffffffffffffffffffffffffffffff8216611e4e576040517f08c379a000000000000000000000000000000000000000000000000000000000815260206004820152602c60248201527f455243313135355472616461626c652373657443726561746f723a20494e564160448201527f4c49445f414444524553532e0000000000000000000000000000000000000000606482015260840161069c565b60005b8151811015610db6576000828281518110611e6e57611e6e615467565b60200260200101519050611e8284826134e8565b5080611e8d816154c5565b915050611e51565b60188161064081106109f557600080fd5b6011546040517f70a082310000000000000000000000000000000000000000000000000000000081523060048201526000919073ffffffffffffffffffffffffffffffffffffffff7f000000000000000000000000000000000000000000000000000000000000000016906370a0823190602401602060405180830381865afa158015611f37573d6000803e3d6000fd5b505050506040513d601f19601f82011682018060405250810190611f5b91906155df565b1015611fe9576040517f08c379a000000000000000000000000000000000000000000000000000000000815260206004820152602b60248201527f4e6f7420656e6f756768204c494e4b202d2066696c6c20636f6e74726163742060448201527f7769746820666175636574000000000000000000000000000000000000000000606482015260840161069c565b611ff76010546011546135f1565b336000908152601360205260409020819055919050565b611b01816001610dbb565b60045460009073ffffffffffffffffffffffffffffffffffffffff16331461209d576040517f08c379a000000000000000000000000000000000000000000000000000000000815260206004820181905260248201527f4f776e61626c653a2063616c6c6572206973206e6f7420746865206f776e6572604482015260640161069c565b6040517f2c50517e00000000000000000000000000000000000000000000000000000000815260040160405180910390fd5b6005546040517fc455279100000000000000000000000000000000000000000000000000000000815273ffffffffffffffffffffffffffffffffffffffff848116600483015260009281169190841690829063c455279190602401602060405180830381865afa158015612147573d6000803e3d6000fd5b505050506040513d601f19601f8201168201806040525081019061216b91906155f8565b73ffffffffffffffffffffffffffffffffffffffff1614156121915760019150506106d7565b73ffffffffffffffffffffffffffffffffffffffff80851660009081526002602090815260408083209387168352929052205460ff165b949350505050565b73ffffffffffffffffffffffffffffffffffffffff85163314806121f957506121f985336120cf565b612285576040517f08c379a000000000000000000000000000000000000000000000000000000000815260206004820152602960248201527f455243313135353a2063616c6c6572206973206e6f74206f776e6572206e6f7260448201527f20617070726f7665640000000000000000000000000000000000000000000000606482015260840161069c565b6109de8585858585613775565b60045473ffffffffffffffffffffffffffffffffffffffff163314612313576040517f08c379a000000000000000000000000000000000000000000000000000000000815260206004820181905260248201527f4f776e61626c653a2063616c6c6572206973206e6f7420746865206f776e6572604482015260640161069c565b73ffffffffffffffffffffffffffffffffffffffff81166123b6576040517f08c379a000000000000000000000000000000000000000000000000000000000815260206004820152602660248201527f4f776e61626c653a206e6577206f776e657220697320746865207a65726f206160448201527f6464726573730000000000000000000000000000000000000000000000000000606482015260840161069c565b611b0181612dfc565b600b60205281600052604060002081815481106123db57600080fd5b90600052602060002090600a9182820401919006600302915091509054906101000a900462ffffff1681565b73ffffffffffffffffffffffffffffffffffffffff8316331480612430575061243083336120cf565b6124bc576040517f08c379a000000000000000000000000000000000000000000000000000000000815260206004820152602960248201527f455243313135353a2063616c6c6572206973206e6f74206f776e6572206e6f7260448201527f20617070726f7665640000000000000000000000000000000000000000000000606482015260840161069c565b610db68383836139b3565b6060600380546124d690615413565b80601f016020809104026020016040519081016040528092919081815260200182805461250290615413565b801561254f5780601f106125245761010080835404028352916020019161254f565b820191906000526020600020905b81548152906001019060200180831161253257829003601f168201915b50505050509050919050565b60608161259b57505060408051808201909152600181527f3000000000000000000000000000000000000000000000000000000000000000602082015290565b8160005b81156125c557806125af816154c5565b91506125be9050600a83615615565b915061259f565b60008167ffffffffffffffff8111156125e0576125e0614c5d565b6040519080825280601f01601f19166020018201604052801561260a576020820181803683370190505b509050600061261a600184615629565b90505b851561269a5761262e600a8761552d565b612639906030615541565b60f81b828261264781615640565b93508151811061265957612659615467565b60200101907effffffffffffffffffffffffffffffffffffffffffffffffffffffffffffff1916908160001a905350612693600a87615615565b955061261d565b50949350505050565b60606126df8383604051806020016040528060008152506040518060200160405280600081525060405180602001604052806000815250613bbf565b9392505050565b8151835114612777576040517f08c379a000000000000000000000000000000000000000000000000000000000815260206004820152602860248201527f455243313135353a2069647320616e6420616d6f756e7473206c656e6774682060448201527f6d69736d61746368000000000000000000000000000000000000000000000000606482015260840161069c565b73ffffffffffffffffffffffffffffffffffffffff841661281a576040517f08c379a000000000000000000000000000000000000000000000000000000000815260206004820152602560248201527f455243313135353a207472616e7366657220746f20746865207a65726f20616460448201527f6472657373000000000000000000000000000000000000000000000000000000606482015260840161069c565b3360005b845181101561298e57600085828151811061283b5761283b615467565b60200260200101519050600085838151811061285957612859615467565b602090810291909101810151600084815260018352604080822073ffffffffffffffffffffffffffffffffffffffff8e168352909352919091205490915081811015612927576040517f08c379a000000000000000000000000000000000000000000000000000000000815260206004820152602a60248201527f455243313135353a20696e73756666696369656e742062616c616e636520666f60448201527f72207472616e7366657200000000000000000000000000000000000000000000606482015260840161069c565b600083815260016020908152604080832073ffffffffffffffffffffffffffffffffffffffff8e8116855292528083208585039055908b16825281208054849290612973908490615541565b9250508190555050505080612987906154c5565b905061281e565b508473ffffffffffffffffffffffffffffffffffffffff168673ffffffffffffffffffffffffffffffffffffffff168273ffffffffffffffffffffffffffffffffffffffff167f4a39dc06d4c0dbc64b70af90fd698a233a518aa5d07e595d983b8c0526c8f7fb8787604051612a05929190615675565b60405180910390a4612a1b818787878787613f94565b505050505050565b73ffffffffffffffffffffffffffffffffffffffff8316612ac6576040517f08c379a000000000000000000000000000000000000000000000000000000000815260206004820152602360248201527f455243313135353a206275726e2066726f6d20746865207a65726f206164647260448201527f6573730000000000000000000000000000000000000000000000000000000000606482015260840161069c565b8051825114612b57576040517f08c379a000000000000000000000000000000000000000000000000000000000815260206004820152602860248201527f455243313135353a2069647320616e6420616d6f756e7473206c656e6774682060448201527f6d69736d61746368000000000000000000000000000000000000000000000000606482015260840161069c565b604080516020810190915260009081905233905b8351811015612cb9576000848281518110612b8857612b88615467565b602002602001015190506000848381518110612ba657612ba6615467565b602090810291909101810151600084815260018352604080822073ffffffffffffffffffffffffffffffffffffffff8c168352909352919091205490915081811015612c73576040517f08c379a0000000000000000000000000000000000000000000000000000000008152602060048201526024808201527f455243313135353a206275726e20616d6f756e7420657863656564732062616c60448201527f616e636500000000000000000000000000000000000000000000000000000000606482015260840161069c565b600092835260016020908152604080852073ffffffffffffffffffffffffffffffffffffffff8b1686529091529092209103905580612cb1816154c5565b915050612b6b565b50600073ffffffffffffffffffffffffffffffffffffffff168473ffffffffffffffffffffffffffffffffffffffff168273ffffffffffffffffffffffffffffffffffffffff167f4a39dc06d4c0dbc64b70af90fd698a233a518aa5d07e595d983b8c0526c8f7fb8686604051612d31929190615675565b60405180910390a450505050565b600081600f851660108110612d5657612d56615467565b602002015163ffffffff1683600f861660108110612d7657612d76615467565b602002015163ffffffff1610949350505050565b6000606482600f871660108110612da357612da3615467565b6020020151612db291906156a3565b63ffffffff1683600486901b60f016600f8816176106408110612dd757612dd7615467565b602002015163ffffffff161095945050505050565b60041b60f016600f919091161790565b6004805473ffffffffffffffffffffffffffffffffffffffff8381167fffffffffffffffffffffffff0000000000000000000000000000000000000000831681179093556040519116919082907f8be0079c531659141344cd1fd0a4f28419497f9722a3daafe3b4186f6b6457e090600090a35050565b60045473ffffffffffffffffffffffffffffffffffffffff163314612ef4576040517f08c379a000000000000000000000000000000000000000000000000000000000815260206004820181905260248201527f4f776e61626c653a2063616c6c6572206973206e6f7420746865206f776e6572604482015260640161069c565b612f008484848461421f565b60008381526008602052604081208054849290612f1e908490615541565b909155505050505050565b8051611a73906003906020840190614944565b60008281526012602052604090819020829055517fa312c4217fec2a5d353039350081a0149ed918efd6ec43d7f0e8a425f0715f1590612f7f9084815260200190565b60405180910390a15050565b600f5460ff1615612fc8576040517f0dc149f000000000000000000000000000000000000000000000000000000000815260040160405180910390fd5b600e6020527fa7c5ba7114a813b50159add3a36832908dc83db71d0b9a24c2ad0f83be95820780547fffffffffffffffffffffffffffffffffffffffffffffffffffffffff000000009081166205cc921790915560026000527f9adb202b1492743bc00c81d33cdc6423fa8c79109027eb6a845391e8fc1f04818054909116627d1f4017905561305661437f565b6001600052600b60209081528151613091927f72c6bfb7988af3a1efa6568f02a999bc52252641c659d85961ca3d372b57d5cf9201906149c8565b5061309a6144b8565b6002600052600b602090815281516130d5927fa50eece07c7db1631545c0069bd8f5f54d5935e215d59097edf258a44ba916349201906149c8565b506130de61468c565b6130ec90600c906010614a6f565b50600f80547fffffffffffffffffffffffffffffffffffffffffffffffffffffffffffffff00166001179055565b8173ffffffffffffffffffffffffffffffffffffffff168373ffffffffffffffffffffffffffffffffffffffff1614156131d6576040517f08c379a000000000000000000000000000000000000000000000000000000000815260206004820152602960248201527f455243313135353a2073657474696e6720617070726f76616c2073746174757360448201527f20666f722073656c660000000000000000000000000000000000000000000000606482015260840161069c565b73ffffffffffffffffffffffffffffffffffffffff83811660008181526002602090815260408083209487168084529482529182902080547fffffffffffffffffffffffffffffffffffffffffffffffffffffffffffffff001686151590811790915591519182527f17307eab39ab6107e8899845ad3d59bd9653f200f220920489ca2b5937696c31910160405180910390a3505050565b73ffffffffffffffffffffffffffffffffffffffff8416613311576040517f08c379a000000000000000000000000000000000000000000000000000000000815260206004820152602160248201527f455243313135353a206d696e7420746f20746865207a65726f2061646472657360448201527f7300000000000000000000000000000000000000000000000000000000000000606482015260840161069c565b81518351146133a2576040517f08c379a000000000000000000000000000000000000000000000000000000000815260206004820152602860248201527f455243313135353a2069647320616e6420616d6f756e7473206c656e6774682060448201527f6d69736d61746368000000000000000000000000000000000000000000000000606482015260840161069c565b3360005b8451811015613459578381815181106133c1576133c1615467565b6020026020010151600160008784815181106133df576133df615467565b6020026020010151815260200190815260200160002060008873ffffffffffffffffffffffffffffffffffffffff1673ffffffffffffffffffffffffffffffffffffffff16815260200190815260200160002060008282546134419190615541565b90915550819050613451816154c5565b9150506133a6565b508473ffffffffffffffffffffffffffffffffffffffff16600073ffffffffffffffffffffffffffffffffffffffff168273ffffffffffffffffffffffffffffffffffffffff167f4a39dc06d4c0dbc64b70af90fd698a233a518aa5d07e595d983b8c0526c8f7fb87876040516134d1929190615675565b60405180910390a46109de81600087878787613f94565b600081815260076020526040902054819073ffffffffffffffffffffffffffffffffffffffff16331461359d576040517f08c379a000000000000000000000000000000000000000000000000000000000815260206004820152603160248201527f455243313135355472616461626c652363726561746f724f6e6c793a204f4e4c60448201527f595f43524541544f525f414c4c4f574544000000000000000000000000000000606482015260840161069c565b50600090815260076020526040902080547fffffffffffffffffffffffff00000000000000000000000000000000000000001673ffffffffffffffffffffffffffffffffffffffff92909216919091179055565b60007f000000000000000000000000000000000000000000000000000000000000000073ffffffffffffffffffffffffffffffffffffffff16634000aea07f00000000000000000000000000000000000000000000000000000000000000008486600060405160200161366e929190918252602082015260400190565b6040516020818303038152906040526040518463ffffffff1660e01b815260040161369b939291906156c6565b6020604051808303816000875af11580156136ba573d6000803e3d6000fd5b505050506040513d601f19601f820116820180604052508101906136de91906155c2565b5060008381526020818152604080832054815180840188905280830185905230606082015260808082018390528351808303909101815260a090910190925281519183019190912086845292909152613738906001615541565b60008581526020818152604091829020929092558051808301879052808201849052815180820383018152606090910190915280519101206121c8565b73ffffffffffffffffffffffffffffffffffffffff8416613818576040517f08c379a000000000000000000000000000000000000000000000000000000000815260206004820152602560248201527f455243313135353a207472616e7366657220746f20746865207a65726f20616460448201527f6472657373000000000000000000000000000000000000000000000000000000606482015260840161069c565b336138318187876138288861472e565b6109de8861472e565b600084815260016020908152604080832073ffffffffffffffffffffffffffffffffffffffff8a168452909152902054838110156138f1576040517f08c379a000000000000000000000000000000000000000000000000000000000815260206004820152602a60248201527f455243313135353a20696e73756666696369656e742062616c616e636520666f60448201527f72207472616e7366657200000000000000000000000000000000000000000000606482015260840161069c565b600085815260016020908152604080832073ffffffffffffffffffffffffffffffffffffffff8b811685529252808320878503905590881682528120805486929061393d908490615541565b9091555050604080518681526020810186905273ffffffffffffffffffffffffffffffffffffffff808916928a821692918616917fc3d58168c5ae7397731d063d5bbf3d657854427343f4c083240f7aacaa2d0f62910160405180910390a46139aa828888888888614779565b50505050505050565b73ffffffffffffffffffffffffffffffffffffffff8316613a56576040517f08c379a000000000000000000000000000000000000000000000000000000000815260206004820152602360248201527f455243313135353a206275726e2066726f6d20746865207a65726f206164647260448201527f6573730000000000000000000000000000000000000000000000000000000000606482015260840161069c565b33613a8681856000613a678761472e565b613a708761472e565b5050604080516020810190915260009052505050565b600083815260016020908152604080832073ffffffffffffffffffffffffffffffffffffffff8816845290915290205482811015613b45576040517f08c379a0000000000000000000000000000000000000000000000000000000008152602060048201526024808201527f455243313135353a206275726e20616d6f756e7420657863656564732062616c60448201527f616e636500000000000000000000000000000000000000000000000000000000606482015260840161069c565b600084815260016020908152604080832073ffffffffffffffffffffffffffffffffffffffff898116808652918452828520888703905582518981529384018890529092908616917fc3d58168c5ae7397731d063d5bbf3d657854427343f4c083240f7aacaa2d0f62910160405180910390a45050505050565b805182518451865188516060948a948a948a948a948a94600094909390929091613be99190615541565b613bf39190615541565b613bfd9190615541565b613c079190615541565b67ffffffffffffffff811115613c1f57613c1f614c5d565b6040519080825280601f01601f191660200182016040528015613c49576020820181803683370190505b509050806000805b8851811015613cf157888181518110613c6c57613c6c615467565b01602001517fff00000000000000000000000000000000000000000000000000000000000000168383613c9e816154c5565b945081518110613cb057613cb0615467565b60200101907effffffffffffffffffffffffffffffffffffffffffffffffffffffffffffff1916908160001a90535080613ce9816154c5565b915050613c51565b5060005b8751811015613d9557878181518110613d1057613d10615467565b01602001517fff00000000000000000000000000000000000000000000000000000000000000168383613d42816154c5565b945081518110613d5457613d54615467565b60200101907effffffffffffffffffffffffffffffffffffffffffffffffffffffffffffff1916908160001a90535080613d8d816154c5565b915050613cf5565b5060005b8651811015613e3957868181518110613db457613db4615467565b01602001517fff00000000000000000000000000000000000000000000000000000000000000168383613de6816154c5565b945081518110613df857613df8615467565b60200101907effffffffffffffffffffffffffffffffffffffffffffffffffffffffffffff1916908160001a90535080613e31816154c5565b915050613d99565b5060005b8551811015613edd57858181518110613e5857613e58615467565b01602001517fff00000000000000000000000000000000000000000000000000000000000000168383613e8a816154c5565b945081518110613e9c57613e9c615467565b60200101907effffffffffffffffffffffffffffffffffffffffffffffffffffffffffffff1916908160001a90535080613ed5816154c5565b915050613e3d565b5060005b8451811015613f8157848181518110613efc57613efc615467565b01602001517fff00000000000000000000000000000000000000000000000000000000000000168383613f2e816154c5565b945081518110613f4057613f40615467565b60200101907effffffffffffffffffffffffffffffffffffffffffffffffffffffffffffff1916908160001a90535080613f79816154c5565b915050613ee1565b50909d9c50505050505050505050505050565b73ffffffffffffffffffffffffffffffffffffffff84163b15612a1b576040517fbc197c8100000000000000000000000000000000000000000000000000000000815273ffffffffffffffffffffffffffffffffffffffff85169063bc197c819061400b90899089908890889088906004016156fb565b6020604051808303816000875af1925050508015614064575060408051601f3d9081017fffffffffffffffffffffffffffffffffffffffffffffffffffffffffffffffe016820190925261406191810190615766565b60015b61414e57614070615783565b806308c379a014156140c4575061408561579f565b8061409057506140c6565b806040517f08c379a000000000000000000000000000000000000000000000000000000000815260040161069c9190614c31565b505b6040517f08c379a000000000000000000000000000000000000000000000000000000000815260206004820152603460248201527f455243313135353a207472616e7366657220746f206e6f6e204552433131353560448201527f526563656976657220696d706c656d656e746572000000000000000000000000606482015260840161069c565b7fffffffff0000000000000000000000000000000000000000000000000000000081167fbc197c8100000000000000000000000000000000000000000000000000000000146139aa576040517f08c379a000000000000000000000000000000000000000000000000000000000815260206004820152602860248201527f455243313135353a204552433131353552656365697665722072656a6563746560448201527f6420746f6b656e73000000000000000000000000000000000000000000000000606482015260840161069c565b73ffffffffffffffffffffffffffffffffffffffff84166142c2576040517f08c379a000000000000000000000000000000000000000000000000000000000815260206004820152602160248201527f455243313135353a206d696e7420746f20746865207a65726f2061646472657360448201527f7300000000000000000000000000000000000000000000000000000000000000606482015260840161069c565b336142d3816000876138288861472e565b600084815260016020908152604080832073ffffffffffffffffffffffffffffffffffffffff8916845290915281208054859290614312908490615541565b9091555050604080518581526020810185905273ffffffffffffffffffffffffffffffffffffffff80881692600092918516917fc3d58168c5ae7397731d063d5bbf3d657854427343f4c083240f7aacaa2d0f62910160405180910390a46109de81600087878787614779565b60408051600680825260e08201909252606091600091906020820160c08036833750508151919250611ae5918391506000906143bd576143bd615467565b62ffffff909216602092830291909101909101528051612e6290829060019081106143ea576143ea615467565b62ffffff909216602092830291909101909101528051612e68908290600290811061441757614417615467565b62ffffff909216602092830291909101909101528051615cc1908290600390811061444457614444615467565b62ffffff909216602092830291909101909101528051615cc4908290600490811061447157614471615467565b62ffffff90921660209283029190910190910152805162013ff0908290600590811061449f5761449f615467565b62ffffff90921660209283029190910190910152919050565b60408051600a80825261016082019092526060916000919060208201610140803683375050815191925060ef918391506000906144f7576144f7615467565b62ffffff9092166020928302919091019091015280516108fb908290600190811061452457614524615467565b62ffffff9092166020928302919091019091015280516108fe908290600290811061455157614551615467565b62ffffff9092166020928302919091019091015280516111e7908290600390811061457e5761457e615467565b62ffffff9092166020928302919091019091015280516111ed90829060049081106145ab576145ab615467565b62ffffff909216602092830291909101909101528051613dbc90829060059081106145d8576145d8615467565b62ffffff909216602092830291909101909101528051613db3908290600690811061460557614605615467565b62ffffff90921660209283029190910190910152805161597a908290600790811061463257614632615467565b62ffffff90921660209283029190910190910152805161b2d6908290600890811061465f5761465f615467565b62ffffff90921660209283029190910190910152805161b2d9908290600990811061449f5761449f615467565b614694614af9565b61469c614af9565b6301312d008152623d090060208201819052621e84806040830181905262030d40606084018190526080840192909252620c350060a084015262061a8060c08401819052619c4060e085018190526101008501929092526101208401526101408301829052614e2061016084018190526101808401929092526101a08301526101c082015260c86101e0820152919050565b6040805160018082528183019092526060916000919060208083019080368337019050509050828160008151811061476857614768615467565b602090810291909101015292915050565b73ffffffffffffffffffffffffffffffffffffffff84163b15612a1b576040517ff23a6e6100000000000000000000000000000000000000000000000000000000815273ffffffffffffffffffffffffffffffffffffffff85169063f23a6e61906147f09089908990889088908890600401615847565b6020604051808303816000875af1925050508015614849575060408051601f3d9081017fffffffffffffffffffffffffffffffffffffffffffffffffffffffffffffffe016820190925261484691810190615766565b60015b61485557614070615783565b7fffffffff0000000000000000000000000000000000000000000000000000000081167ff23a6e6100000000000000000000000000000000000000000000000000000000146139aa576040517f08c379a000000000000000000000000000000000000000000000000000000000815260206004820152602860248201527f455243313135353a204552433131353552656365697665722072656a6563746560448201527f6420746f6b656e73000000000000000000000000000000000000000000000000606482015260840161069c565b6040518060a001604052806005906020820280368337509192915050565b82805461495090615413565b90600052602060002090601f01602090048101928261497257600085556149b8565b82601f1061498b57805160ff19168380011785556149b8565b828001600101855582156149b8579182015b828111156149b857825182559160200191906001019061499d565b506149c4929150614b18565b5090565b82805482825590600052602060002090600901600a900481019282156149b85791602002820160005b83821115614a3357835183826101000a81548162ffffff021916908362ffffff16021790555092602001926003016020816002010492830192600103026149f1565b8015614a625782816101000a81549062ffffff0219169055600301602081600201049283019260010302614a33565b50506149c4929150614b18565b6002830191839082156149b85791602002820160005b83821115614ac957835183826101000a81548163ffffffff021916908363ffffffff1602179055509260200192600401602081600301049283019260010302614a85565b8015614a625782816101000a81549063ffffffff0219169055600401602081600301049283019260010302614ac9565b6040518061020001604052806010906020820280368337509192915050565b5b808211156149c45760008155600101614b19565b73ffffffffffffffffffffffffffffffffffffffff81168114611b0157600080fd5b60008060408385031215614b6257600080fd5b8235614b6d81614b2d565b946020939093013593505050565b7fffffffff0000000000000000000000000000000000000000000000000000000081168114611b0157600080fd5b600060208284031215614bbb57600080fd5b81356126df81614b7b565b6000815180845260005b81811015614bec57602081850181015186830182015201614bd0565b81811115614bfe576000602083870101525b50601f017fffffffffffffffffffffffffffffffffffffffffffffffffffffffffffffffe0169290920160200192915050565b6020815260006126df6020830184614bc6565b600060208284031215614c5657600080fd5b5035919050565b7f4e487b7100000000000000000000000000000000000000000000000000000000600052604160045260246000fd5b7fffffffffffffffffffffffffffffffffffffffffffffffffffffffffffffffe0601f830116810181811067ffffffffffffffff82111715614cd057614cd0614c5d565b6040525050565b600067ffffffffffffffff821115614cf157614cf1614c5d565b5060051b60200190565b600082601f830112614d0c57600080fd5b81356020614d1982614cd7565b604051614d268282614c8c565b83815260059390931b8501820192828101915086841115614d4657600080fd5b8286015b84811015614d615780358352918301918301614d4a565b509695505050505050565b600067ffffffffffffffff831115614d8657614d86614c5d565b604051614dbb60207fffffffffffffffffffffffffffffffffffffffffffffffffffffffffffffffe0601f8701160182614c8c565b809150838152848484011115614dd057600080fd5b83836020830137600060208583010152509392505050565b600082601f830112614df957600080fd5b6126df83833560208501614d6c565b600080600080600060a08688031215614e2057600080fd5b8535614e2b81614b2d565b94506020860135614e3b81614b2d565b9350604086013567ffffffffffffffff80821115614e5857600080fd5b614e6489838a01614cfb565b94506060880135915080821115614e7a57600080fd5b614e8689838a01614cfb565b93506080880135915080821115614e9c57600080fd5b50614ea988828901614de8565b9150509295509295909350565b60008060408385031215614ec957600080fd5b823567ffffffffffffffff80821115614ee157600080fd5b818501915085601f830112614ef557600080fd5b81356020614f0282614cd7565b604051614f0f8282614c8c565b83815260059390931b8501820192828101915089841115614f2f57600080fd5b948201945b83861015614f56578535614f4781614b2d565b82529482019490820190614f34565b96505086013592505080821115614f6c57600080fd5b50614f7985828601614cfb565b9150509250929050565b600081518084526020808501945080840160005b83811015614fb357815187529582019590820190600101614f97565b509495945050505050565b6020815260006126df6020830184614f83565b600060208284031215614fe357600080fd5b81356126df81614b2d565b60008060006060848603121561500357600080fd5b833561500e81614b2d565b9250602084013567ffffffffffffffff8082111561502b57600080fd5b61503787838801614cfb565b9350604086013591508082111561504d57600080fd5b5061505a86828701614cfb565b9150509250925092565b6000806040838503121561507757600080fd5b50508035926020909101359150565b6000806000806080858703121561509c57600080fd5b84356150a781614b2d565b93506020850135925060408501359150606085013567ffffffffffffffff8111156150d157600080fd5b6150dd87828801614de8565b91505092959194509250565b6000602082840312156150fb57600080fd5b813567ffffffffffffffff81111561511257600080fd5b8201601f8101841361512357600080fd5b6121c884823560208401614d6c565b8015158114611b0157600080fd5b6000806040838503121561515357600080fd5b823561515e81614b2d565b9150602083013561516e81615132565b809150509250929050565b6000806000806080858703121561518f57600080fd5b843561519a81614b2d565b9350602085013567ffffffffffffffff808211156151b757600080fd5b6151c388838901614cfb565b945060408701359150808211156151d957600080fd5b6151e588838901614cfb565b935060608701359150808211156151fb57600080fd5b506150dd87828801614de8565b6000806040838503121561521b57600080fd5b823561522681614b2d565b9150602083013567ffffffffffffffff81111561524257600080fd5b614f7985828601614cfb565b60008083601f84011261526057600080fd5b50813567ffffffffffffffff81111561527857600080fd5b60208301915083602082850101111561529057600080fd5b9250929050565b600080600080600080608087890312156152b057600080fd5b86356152bb81614b2d565b955060208701359450604087013567ffffffffffffffff808211156152df57600080fd5b6152eb8a838b0161524e565b9096509450606089013591508082111561530457600080fd5b5061531189828a0161524e565b979a9699509497509295939492505050565b6000806040838503121561533657600080fd5b823561534181614b2d565b9150602083013561516e81614b2d565b600080600080600060a0868803121561536957600080fd5b853561537481614b2d565b9450602086013561538481614b2d565b93506040860135925060608601359150608086013567ffffffffffffffff8111156153ae57600080fd5b614ea988828901614de8565b600080604083850312156153cd57600080fd5b823560ff81168114614b6d57600080fd5b6000806000606084860312156153f357600080fd5b83356153fe81614b2d565b95602085013595506040909401359392505050565b600181811c9082168061542757607f821691505b60208210811415615461577f4e487b7100000000000000000000000000000000000000000000000000000000600052602260045260246000fd5b50919050565b7f4e487b7100000000000000000000000000000000000000000000000000000000600052603260045260246000fd5b7f4e487b7100000000000000000000000000000000000000000000000000000000600052601160045260246000fd5b60007fffffffffffffffffffffffffffffffffffffffffffffffffffffffffffffffff8214156154f7576154f7615496565b5060010190565b7f4e487b7100000000000000000000000000000000000000000000000000000000600052601260045260246000fd5b60008261553c5761553c6154fe565b500690565b6000821982111561555457615554615496565b500190565b600060ff821660ff84168060ff0382111561557657615576615496565b019392505050565b600060ff821660ff81141561559557615595615496565b60010192915050565b600063ffffffff808316818114156155b8576155b8615496565b6001019392505050565b6000602082840312156155d457600080fd5b81516126df81615132565b6000602082840312156155f157600080fd5b5051919050565b60006020828403121561560a57600080fd5b81516126df81614b2d565b600082615624576156246154fe565b500490565b60008282101561563b5761563b615496565b500390565b60008161564f5761564f615496565b507fffffffffffffffffffffffffffffffffffffffffffffffffffffffffffffffff0190565b6040815260006156886040830185614f83565b828103602084015261569a8185614f83565b95945050505050565b600063ffffffff808416806156ba576156ba6154fe565b92169190910492915050565b73ffffffffffffffffffffffffffffffffffffffff8416815282602082015260606040820152600061569a6060830184614bc6565b600073ffffffffffffffffffffffffffffffffffffffff808816835280871660208401525060a0604083015261573460a0830186614f83565b82810360608401526157468186614f83565b9050828103608084015261575a8185614bc6565b98975050505050505050565b60006020828403121561577857600080fd5b81516126df81614b7b565b600060033d111561579c5760046000803e5060005160e01c5b90565b600060443d10156157ad5790565b6040517ffffffffffffffffffffffffffffffffffffffffffffffffffffffffffffffffc803d016004833e81513d67ffffffffffffffff81602484011181841117156157fb57505050505090565b82850191508151818111156158135750505050505090565b843d870101602082850101111561582d5750505050505090565b61583c60208286010187614c8c565b509095945050505050565b600073ffffffffffffffffffffffffffffffffffffffff808816835280871660208401525084604083015283606083015260a0608083015261588c60a0830184614bc6565b97965050505050505056fea2646970667358221220471996946f866b70f2bc484ce7774e6c30950beadb6c473cf0057a26b65237ea64736f6c634300080a0033",
  "immutableReferences": {
    "73": [
      {
        "length": 32,
        "start": 6641
      },
      {
        "length": 32,
        "start": 7920
      },
      {
        "length": 32,
        "start": 13813
      }
    ],
    "75": [
      {
        "length": 32,
        "start": 6940
      },
      {
        "length": 32,
        "start": 13873
      }
    ]
  },
  "source": "// SPDX-License-Identifier: MIT\npragma solidity =0.8.10;\n\nimport {ReentrancyGuard} from \"@openzeppelin/contracts/security/ReentrancyGuard.sol\";\nimport {RandomNumberConsumer} from \"./libs/RandomNumberConsumer.sol\";\nimport {LootBoxData, InitializeData} from \"./helpers/LootBoxData.sol\";\nimport {ERC1155Tradable} from \"./libs/opensea/ERC1155Tradable.sol\";\nimport {ICWERC1155} from \"./ICWERC1155.sol\";\n\n/**\n * @title LootBox\n * LootBox - a randomized and openable lootbox of ChainWars\n */\ncontract CWLootBox is ERC1155Tradable, LootBoxData, RandomNumberConsumer, ReentrancyGuard {\n    using InitializeData for uint24;\n\n    error RandomnessNotCreated(address sender);\n    error CWCardsSame(address sender);\n    error NoNewBoxes();\n    error IncorrectBoxId(uint256 id);\n    error BoxCapped(uint256 id);\n\n    event CWCardsUpdated(address oldContract, address newContract);\n\n    ICWERC1155 public CWCards;\n\n//    mapping(uint8 => uint32) public mintedCards;\n//    mapping(uint16 => uint32) public mintedChars;\n    uint32[16] public mintedCards;\n    uint32[1600] public mintedChars;\n\n    constructor(\n        string memory _name,\n        string memory _symbol,\n        string memory _baseURI,\n        ICWERC1155 _cwCards,\n        address _proxyRegistryAddress,\n        address _vrfCoordinator,\n        address _link,\n        bytes32 _keyhash,\n        uint256 _linkFee\n    )\n    ERC1155Tradable(_name, _symbol, _baseURI, _proxyRegistryAddress)\n    RandomNumberConsumer(_vrfCoordinator, _link, _keyhash, _linkFee)\n    {\n        CWCards = _cwCards;\n    }\n\n    function initializer() onlyOwner external {\n        initialize();\n    }\n\n    function createToken() override internal {\n        ERC1155Tradable.create(msg.sender, 0, '', '');\n    }\n\n    function setCWCards(ICWERC1155 cards) external onlyOwner {\n        if (address(cards) == address(CWCards)) {\n            revert CWCardsSame(address(cards));\n        }\n        emit CWCardsUpdated(address(CWCards), address(cards));\n        CWCards = cards;\n    }\n\n    function unwrap(uint256 tokenId) external {\n        unwrap(tokenId, 1);\n    }\n\n    /**\n     *\n     * @dev To get probability from data: shift right for 4 bits (2 border and 2 background)\n     * @dev\n     */\n    function unwrap(uint256 tokenId, uint256 quantity) public nonReentrant {\n        require(address(CWCards) != address(0), \"NFT contract not set\");\n        ICWERC1155 _cardsContract = CWCards;\n        address sender = msg.sender;\n        bytes32 requestId = addressToRequestId[sender];\n        if (requestId == 0x0) {\n            revert RandomnessNotCreated(sender);\n        }\n        delete addressToRequestId[sender];\n        burn(sender, tokenId, 1);\n\n        uint256 randomNumber = requestIdToRandomNumber[requestId];\n        uint256 randoms = 0;\n        if (randomNumber == 0) {\n            revert RandomnessNotCreated(sender);\n        }\n        delete requestIdToRandomNumber[requestId];\n\n        uint24[] memory cardChances = typeChances[uint8(tokenId)];\n        uint256 randomValue;\n\n        for (uint8 z = 0; z < quantity; z++) {\n            for (uint8 cardIdx = 0; cardIdx < 4; cardIdx++) {\n                uint24 card;\n\n                for (uint8 i = 0; i < cardChances.length; i++) {\n                    card = cardChances[i];\n                    // @dev to get the probability, 20 first bits of 24bit value, just shift right for 4 bits\n                    uint24 prob = card.probability();\n\n                    randomValue = uint256(keccak256(abi.encode(randomNumber, randoms++)));\n                    // using 10000 as 100,00 to work with integers, no floating points\n                    uint256 randomPercentage = randomValue % 10000 + 1;\n\n                    if (prob == 0) {continue;}\n                    if (randomPercentage < prob && !card.isCapped(mintedCards, cardCaps)) {\n                        uint24[5] memory sameProbability;\n                        sameProbability[0] = card;\n\n                        uint8 probIdx = 1;\n                        for (uint8 nextIdx = i + 1; nextIdx < 16; nextIdx++) {\n                            uint24 next = cardChances[nextIdx];\n                            if (next.probability() != prob || next.isCapped(mintedCards, cardCaps)) {\n                                break;\n                            }\n\n                            sameProbability[probIdx] = next;\n                            probIdx++;\n                        }\n\n                        randomValue = uint256(keccak256(abi.encode(randomNumber, randoms++)));\n                        card = sameProbability[randomValue % probIdx];\n                        break;\n                    }\n                }\n\n                uint8 character;\n                do {\n                    randomValue = uint256(keccak256(abi.encode(randomNumber, randoms++)));\n                    character = uint8(randomValue % totalCharacters);\n                }\n                while (!card.isCapped(character, mintedChars, cardCaps));\n\n                // to get only border and background, the last 4 bits, just do bitwise AND with the \"1111\" (15)\n                mintedCards[card.bgAndBorder()]++;\n                // to add the \"character\" before 4 bits, do bitwise OR with character shifted for 4 bits left\n                mintedChars[card.bgBorderAndChar(character)]++;\n                _cardsContract.mintCards(sender, card.border(), card.background(), character, 1, \"\");\n            }\n        }\n    }\n//\n//    function isCapped(uint24 _card) private view returns (bool) {\n//        // to get only border and background, the last 4 bits, just do bitwise AND with the \"1111\" (15)\n//        return mintedCards[_card.bgAndBorder()] < cardCaps[_card.bgAndBorder()];\n//    }\n//\n//    function isCapped(uint24 _card, uint8 character) private view returns (bool) {\n//        // to add the \"character\" before 4 bits, do bitwise OR with character shifted for 4 bits left\n//        return mintedChars[_card.bgBorderAndChar(character)] < cardCaps[_card.bgAndBorder()] / totalCharacters;\n//    }\n\n    function create(address, uint256, string calldata, bytes calldata\n    ) public override onlyOwner returns (uint256) {\n        revert NoNewBoxes();\n    }\n\n    function mint(\n        address _to,\n        uint256 _id,\n        uint256 _quantity,\n        bytes memory _data\n    ) public override(ERC1155Tradable) onlyOwner {\n        if (_id < 1 || _id > 2) {\n            revert IncorrectBoxId(_id);\n        }\n\n        if (totalSupply(_id) + _quantity > typeCaps[_id]) {\n            revert BoxCapped(_id);\n        }\n\n        ERC1155Tradable.mint(_to, _id, _quantity, _data);\n    }\n}\n",
  "sourcePath": "/Users/ilyk/projects/midgardtech/solidity/moonlift/chainwars/lootbox/contracts/CWLootBox.sol",
  "compiler": {
    "name": "solc",
    "version": "0.8.10+commit.fc410830.Emscripten.clang"
  },
  "schemaVersion": "3.4.3",
  "updatedAt": "2022-02-14T10:06:26.995Z",
  "networkType": "ethereum",
  "devdoc": {
    "kind": "dev",
    "methods": {
      "balanceOf(address,uint256)": {
        "details": "See {IERC1155-balanceOf}. Requirements: - `account` cannot be the zero address."
      },
      "balanceOfBatch(address[],uint256[])": {
        "details": "See {IERC1155-balanceOfBatch}. Requirements: - `accounts` and `ids` must have the same length."
      },
      "batchMint(address,uint256[],uint256[],bytes)": {
        "details": "Mint tokens for each id in _ids",
        "params": {
          "_data": "Data to pass if receiver is contract",
          "_ids": "Array of ids to mint",
          "_quantities": "Array of amounts of tokens to mint per id",
          "_to": "The address to mint tokens to"
        }
      },
      "mint(address,uint256,uint256,bytes)": {
        "details": "Mints some amount of tokens to an address",
        "params": {
          "_data": "Data to pass if receiver is contract",
          "_id": "Token ID to mint",
          "_quantity": "Amount of tokens to mint",
          "_to": "Address of the future owner of the token"
        }
      },
      "owner()": {
        "details": "Returns the address of the current owner."
      },
      "renounceOwnership()": {
        "details": "Leaves the contract without owner. It will not be possible to call `onlyOwner` functions anymore. Can only be called by the current owner. NOTE: Renouncing ownership will leave the contract without an owner, thereby removing any functionality that is only available to the owner."
      },
      "safeBatchTransferFrom(address,address,uint256[],uint256[],bytes)": {
        "details": "See {IERC1155-safeBatchTransferFrom}."
      },
      "safeTransferFrom(address,address,uint256,uint256,bytes)": {
        "details": "See {IERC1155-safeTransferFrom}."
      },
      "setApprovalForAll(address,bool)": {
        "details": "See {IERC1155-setApprovalForAll}."
      },
      "setBaseMetadataURI(string)": {
        "details": "Will update the base URL of token's URI",
        "params": {
          "_newBaseMetadataURI": "New base URL of token's URI"
        }
      },
      "setCreator(address,uint256[])": {
        "details": "Change the creator address for given tokens",
        "params": {
          "_ids": "Array of Token IDs to change creator",
          "_to": "Address of the new creator"
        }
      },
      "supportsInterface(bytes4)": {
        "details": "See {IERC165-supportsInterface}."
      },
      "totalSupply(uint256)": {
        "details": "Returns the total quantity for a token ID",
        "params": {
          "_id": "uint256 ID of the token to query"
        },
        "returns": {
          "_0": "amount of token in existence"
        }
      },
      "transferOwnership(address)": {
        "details": "Transfers ownership of the contract to a new account (`newOwner`). Can only be called by the current owner."
      },
      "unwrap(uint256,uint256)": {
        "details": "To get probability from data: shift right for 4 bits (2 border and 2 background)"
      }
    },
    "title": "LootBox LootBox - a randomized and openable lootbox of ChainWars",
    "version": 1
  },
  "userdoc": {
    "kind": "user",
    "methods": {
      "getRandomNumber()": {
        "notice": "Requests randomness"
      },
      "isApprovedForAll(address,address)": {
        "notice": "Override isApprovedForAll to whitelist user's OpenSea proxy accounts to enable gas-free listings."
      }
    },
    "version": 1
  }
}