{
  "contractName": "ERC1155Tradable",
  "abi": [
    {
      "inputs": [
        {
          "internalType": "string",
          "name": "_name",
          "type": "string"
        },
        {
          "internalType": "string",
          "name": "_symbol",
          "type": "string"
        },
        {
          "internalType": "string",
          "name": "_url",
          "type": "string"
        },
        {
          "internalType": "address",
          "name": "_proxyRegistryAddress",
          "type": "address"
        }
      ],
      "stateMutability": "nonpayable",
      "type": "constructor"
    },
    {
      "anonymous": false,
      "inputs": [
        {
          "indexed": true,
          "internalType": "address",
          "name": "account",
          "type": "address"
        },
        {
          "indexed": true,
          "internalType": "address",
          "name": "operator",
          "type": "address"
        },
        {
          "indexed": false,
          "internalType": "bool",
          "name": "approved",
          "type": "bool"
        }
      ],
      "name": "ApprovalForAll",
      "type": "event"
    },
    {
      "anonymous": false,
      "inputs": [
        {
          "indexed": true,
          "internalType": "address",
          "name": "previousOwner",
          "type": "address"
        },
        {
          "indexed": true,
          "internalType": "address",
          "name": "newOwner",
          "type": "address"
        }
      ],
      "name": "OwnershipTransferred",
      "type": "event"
    },
    {
      "anonymous": false,
      "inputs": [
        {
          "indexed": true,
          "internalType": "address",
          "name": "operator",
          "type": "address"
        },
        {
          "indexed": true,
          "internalType": "address",
          "name": "from",
          "type": "address"
        },
        {
          "indexed": true,
          "internalType": "address",
          "name": "to",
          "type": "address"
        },
        {
          "indexed": false,
          "internalType": "uint256[]",
          "name": "ids",
          "type": "uint256[]"
        },
        {
          "indexed": false,
          "internalType": "uint256[]",
          "name": "values",
          "type": "uint256[]"
        }
      ],
      "name": "TransferBatch",
      "type": "event"
    },
    {
      "anonymous": false,
      "inputs": [
        {
          "indexed": true,
          "internalType": "address",
          "name": "operator",
          "type": "address"
        },
        {
          "indexed": true,
          "internalType": "address",
          "name": "from",
          "type": "address"
        },
        {
          "indexed": true,
          "internalType": "address",
          "name": "to",
          "type": "address"
        },
        {
          "indexed": false,
          "internalType": "uint256",
          "name": "id",
          "type": "uint256"
        },
        {
          "indexed": false,
          "internalType": "uint256",
          "name": "value",
          "type": "uint256"
        }
      ],
      "name": "TransferSingle",
      "type": "event"
    },
    {
      "anonymous": false,
      "inputs": [
        {
          "indexed": false,
          "internalType": "string",
          "name": "value",
          "type": "string"
        },
        {
          "indexed": true,
          "internalType": "uint256",
          "name": "id",
          "type": "uint256"
        }
      ],
      "name": "URI",
      "type": "event"
    },
    {
      "inputs": [
        {
          "internalType": "address",
          "name": "account",
          "type": "address"
        },
        {
          "internalType": "uint256",
          "name": "id",
          "type": "uint256"
        }
      ],
      "name": "balanceOf",
      "outputs": [
        {
          "internalType": "uint256",
          "name": "",
          "type": "uint256"
        }
      ],
      "stateMutability": "view",
      "type": "function"
    },
    {
      "inputs": [
        {
          "internalType": "address[]",
          "name": "accounts",
          "type": "address[]"
        },
        {
          "internalType": "uint256[]",
          "name": "ids",
          "type": "uint256[]"
        }
      ],
      "name": "balanceOfBatch",
      "outputs": [
        {
          "internalType": "uint256[]",
          "name": "",
          "type": "uint256[]"
        }
      ],
      "stateMutability": "view",
      "type": "function"
    },
    {
      "inputs": [
        {
          "internalType": "address",
          "name": "account",
          "type": "address"
        },
        {
          "internalType": "uint256",
          "name": "id",
          "type": "uint256"
        },
        {
          "internalType": "uint256",
          "name": "value",
          "type": "uint256"
        }
      ],
      "name": "burn",
      "outputs": [],
      "stateMutability": "nonpayable",
      "type": "function"
    },
    {
      "inputs": [
        {
          "internalType": "address",
          "name": "account",
          "type": "address"
        },
        {
          "internalType": "uint256[]",
          "name": "ids",
          "type": "uint256[]"
        },
        {
          "internalType": "uint256[]",
          "name": "values",
          "type": "uint256[]"
        }
      ],
      "name": "burnBatch",
      "outputs": [],
      "stateMutability": "nonpayable",
      "type": "function"
    },
    {
      "inputs": [
        {
          "internalType": "uint256",
          "name": "",
          "type": "uint256"
        }
      ],
      "name": "creators",
      "outputs": [
        {
          "internalType": "address",
          "name": "",
          "type": "address"
        }
      ],
      "stateMutability": "view",
      "type": "function"
    },
    {
      "inputs": [],
      "name": "name",
      "outputs": [
        {
          "internalType": "string",
          "name": "",
          "type": "string"
        }
      ],
      "stateMutability": "view",
      "type": "function"
    },
    {
      "inputs": [],
      "name": "owner",
      "outputs": [
        {
          "internalType": "address",
          "name": "",
          "type": "address"
        }
      ],
      "stateMutability": "view",
      "type": "function"
    },
    {
      "inputs": [],
      "name": "renounceOwnership",
      "outputs": [],
      "stateMutability": "nonpayable",
      "type": "function"
    },
    {
      "inputs": [
        {
          "internalType": "address",
          "name": "from",
          "type": "address"
        },
        {
          "internalType": "address",
          "name": "to",
          "type": "address"
        },
        {
          "internalType": "uint256[]",
          "name": "ids",
          "type": "uint256[]"
        },
        {
          "internalType": "uint256[]",
          "name": "amounts",
          "type": "uint256[]"
        },
        {
          "internalType": "bytes",
          "name": "data",
          "type": "bytes"
        }
      ],
      "name": "safeBatchTransferFrom",
      "outputs": [],
      "stateMutability": "nonpayable",
      "type": "function"
    },
    {
      "inputs": [
        {
          "internalType": "address",
          "name": "from",
          "type": "address"
        },
        {
          "internalType": "address",
          "name": "to",
          "type": "address"
        },
        {
          "internalType": "uint256",
          "name": "id",
          "type": "uint256"
        },
        {
          "internalType": "uint256",
          "name": "amount",
          "type": "uint256"
        },
        {
          "internalType": "bytes",
          "name": "data",
          "type": "bytes"
        }
      ],
      "name": "safeTransferFrom",
      "outputs": [],
      "stateMutability": "nonpayable",
      "type": "function"
    },
    {
      "inputs": [
        {
          "internalType": "address",
          "name": "operator",
          "type": "address"
        },
        {
          "internalType": "bool",
          "name": "approved",
          "type": "bool"
        }
      ],
      "name": "setApprovalForAll",
      "outputs": [],
      "stateMutability": "nonpayable",
      "type": "function"
    },
    {
      "inputs": [
        {
          "internalType": "bytes4",
          "name": "interfaceId",
          "type": "bytes4"
        }
      ],
      "name": "supportsInterface",
      "outputs": [
        {
          "internalType": "bool",
          "name": "",
          "type": "bool"
        }
      ],
      "stateMutability": "view",
      "type": "function"
    },
    {
      "inputs": [],
      "name": "symbol",
      "outputs": [
        {
          "internalType": "string",
          "name": "",
          "type": "string"
        }
      ],
      "stateMutability": "view",
      "type": "function"
    },
    {
      "inputs": [
        {
          "internalType": "uint256",
          "name": "",
          "type": "uint256"
        }
      ],
      "name": "tokenSupply",
      "outputs": [
        {
          "internalType": "uint256",
          "name": "",
          "type": "uint256"
        }
      ],
      "stateMutability": "view",
      "type": "function"
    },
    {
      "inputs": [
        {
          "internalType": "address",
          "name": "newOwner",
          "type": "address"
        }
      ],
      "name": "transferOwnership",
      "outputs": [],
      "stateMutability": "nonpayable",
      "type": "function"
    },
    {
      "inputs": [
        {
          "internalType": "uint256",
          "name": "_id",
          "type": "uint256"
        }
      ],
      "name": "uri",
      "outputs": [
        {
          "internalType": "string",
          "name": "",
          "type": "string"
        }
      ],
      "stateMutability": "view",
      "type": "function"
    },
    {
      "inputs": [
        {
          "internalType": "uint256",
          "name": "_id",
          "type": "uint256"
        }
      ],
      "name": "totalSupply",
      "outputs": [
        {
          "internalType": "uint256",
          "name": "",
          "type": "uint256"
        }
      ],
      "stateMutability": "view",
      "type": "function"
    },
    {
      "inputs": [
        {
          "internalType": "string",
          "name": "_newBaseMetadataURI",
          "type": "string"
        }
      ],
      "name": "setBaseMetadataURI",
      "outputs": [],
      "stateMutability": "nonpayable",
      "type": "function"
    },
    {
      "inputs": [
        {
          "internalType": "address",
          "name": "_initialOwner",
          "type": "address"
        },
        {
          "internalType": "uint256",
          "name": "_initialSupply",
          "type": "uint256"
        },
        {
          "internalType": "string",
          "name": "_uri",
          "type": "string"
        },
        {
          "internalType": "bytes",
          "name": "_data",
          "type": "bytes"
        }
      ],
      "name": "create",
      "outputs": [
        {
          "internalType": "uint256",
          "name": "",
          "type": "uint256"
        }
      ],
      "stateMutability": "nonpayable",
      "type": "function"
    },
    {
      "inputs": [
        {
          "internalType": "address",
          "name": "_to",
          "type": "address"
        },
        {
          "internalType": "uint256",
          "name": "_id",
          "type": "uint256"
        },
        {
          "internalType": "uint256",
          "name": "_quantity",
          "type": "uint256"
        },
        {
          "internalType": "bytes",
          "name": "_data",
          "type": "bytes"
        }
      ],
      "name": "mint",
      "outputs": [],
      "stateMutability": "nonpayable",
      "type": "function"
    },
    {
      "inputs": [
        {
          "internalType": "address",
          "name": "_to",
          "type": "address"
        },
        {
          "internalType": "uint256[]",
          "name": "_ids",
          "type": "uint256[]"
        },
        {
          "internalType": "uint256[]",
          "name": "_quantities",
          "type": "uint256[]"
        },
        {
          "internalType": "bytes",
          "name": "_data",
          "type": "bytes"
        }
      ],
      "name": "batchMint",
      "outputs": [],
      "stateMutability": "nonpayable",
      "type": "function"
    },
    {
      "inputs": [
        {
          "internalType": "address",
          "name": "_to",
          "type": "address"
        },
        {
          "internalType": "uint256[]",
          "name": "_ids",
          "type": "uint256[]"
        }
      ],
      "name": "setCreator",
      "outputs": [],
      "stateMutability": "nonpayable",
      "type": "function"
    },
    {
      "inputs": [
        {
          "internalType": "address",
          "name": "_owner",
          "type": "address"
        },
        {
          "internalType": "address",
          "name": "_operator",
          "type": "address"
        }
      ],
      "name": "isApprovedForAll",
      "outputs": [
        {
          "internalType": "bool",
          "name": "isOperator",
          "type": "bool"
        }
      ],
      "stateMutability": "view",
      "type": "function"
    }
  ],
  "bytecode": "0x608060405260006005553480156200001657600080fd5b5060405162003eb038038062003eb0833981016040819052620000399162000285565b816200004581620000a7565b506200005133620000c0565b83516200006690600890602087019062000112565b5082516200007c90600990602086019062000112565b50600480546001600160a01b0319166001600160a01b03929092169190911790555062000375915050565b8051620000bc90600290602084019062000112565b5050565b600380546001600160a01b038381166001600160a01b0319831681179093556040519116919082907f8be0079c531659141344cd1fd0a4f28419497f9722a3daafe3b4186f6b6457e090600090a35050565b828054620001209062000338565b90600052602060002090601f0160209004810192826200014457600085556200018f565b82601f106200015f57805160ff19168380011785556200018f565b828001600101855582156200018f579182015b828111156200018f57825182559160200191906001019062000172565b506200019d929150620001a1565b5090565b5b808211156200019d5760008155600101620001a2565b634e487b7160e01b600052604160045260246000fd5b600082601f830112620001e057600080fd5b81516001600160401b0380821115620001fd57620001fd620001b8565b604051601f8301601f19908116603f01168101908282118183101715620002285762000228620001b8565b816040528381526020925086838588010111156200024557600080fd5b600091505b838210156200026957858201830151818301840152908201906200024a565b838211156200027b5760008385830101525b9695505050505050565b600080600080608085870312156200029c57600080fd5b84516001600160401b0380821115620002b457600080fd5b620002c288838901620001ce565b95506020870151915080821115620002d957600080fd5b620002e788838901620001ce565b94506040870151915080821115620002fe57600080fd5b506200030d87828801620001ce565b606087015190935090506001600160a01b03811681146200032d57600080fd5b939692955090935050565b600181811c908216806200034d57607f821691505b602082108114156200036f57634e487b7160e01b600052602260045260246000fd5b50919050565b613b2b80620003856000396000f3fe608060405234801561001057600080fd5b506004361061018c5760003560e01c80638da5cb5b116100e3578063d2a6b51a1161008c578063f242432a11610066578063f242432a14610394578063f2fde38b146103a7578063f5298aca146103ba57600080fd5b8063d2a6b51a1461035b578063e38e3b241461036e578063e985e9c51461038157600080fd5b8063b48ab8b6116100bd578063b48ab8b6146102f2578063bd85b03914610305578063cd53d08e1461032557600080fd5b80638da5cb5b1461029857806395d89b41146102d7578063a22cb465146102df57600080fd5b80632eb2c2d611610145578063715018a61161011f578063715018a61461026a578063731133e9146102725780637e518ec81461028557600080fd5b80632eb2c2d6146102225780634e1273f4146102375780636b20c4541461025757600080fd5b806306fdde031161017657806306fdde03146101da5780630e89341c146101ef5780632693ebf21461020257600080fd5b8062fdd58e1461019157806301ffc9a7146101b7575b600080fd5b6101a461019f366004612f95565b6103cd565b6040519081526020015b60405180910390f35b6101ca6101c5366004612fef565b6104ad565b60405190151581526020016101ae565b6101e2610590565b6040516101ae9190613077565b6101e26101fd36600461308a565b61061e565b6101a461021036600461308a565b60076020526000908152604090205481565b610235610230366004613244565b6106ec565b005b61024a6102453660046132f2565b6107b5565b6040516101ae91906133fa565b61023561026536600461340d565b61090d565b6102356109d2565b610235610280366004613483565b610a5f565b6102356102933660046134e6565b610b15565b60035473ffffffffffffffffffffffffffffffffffffffff165b60405173ffffffffffffffffffffffffffffffffffffffff90911681526020016101ae565b6101e2610ba2565b6102356102ed36600461351b565b610baf565b610235610300366004613559565b610bbe565b6101a461031336600461308a565b60009081526007602052604090205490565b6102b261033336600461308a565b60066020526000908152604090205473ffffffffffffffffffffffffffffffffffffffff1681565b6102356103693660046135e8565b610d11565b6101a461037c36600461362e565b610dfb565b6101ca61038f36600461367f565b610f30565b6102356103a23660046136ad565b611034565b6102356103b5366004613716565b6110f6565b6102356103c8366004613733565b611223565b600073ffffffffffffffffffffffffffffffffffffffff8316610477576040517f08c379a000000000000000000000000000000000000000000000000000000000815260206004820152602b60248201527f455243313135353a2062616c616e636520717565727920666f7220746865207a60448201527f65726f206164647265737300000000000000000000000000000000000000000060648201526084015b60405180910390fd5b5060008181526020818152604080832073ffffffffffffffffffffffffffffffffffffffff861684529091529020545b92915050565b60007fffffffff0000000000000000000000000000000000000000000000000000000082167fd9b67a2600000000000000000000000000000000000000000000000000000000148061054057507fffffffff0000000000000000000000000000000000000000000000000000000082167f0e89341c00000000000000000000000000000000000000000000000000000000145b806104a757507f01ffc9a7000000000000000000000000000000000000000000000000000000007fffffffff000000000000000000000000000000000000000000000000000000008316146104a7565b6008805461059d90613768565b80601f01602080910402602001604051908101604052809291908181526020018280546105c990613768565b80156106165780601f106105eb57610100808354040283529160200191610616565b820191906000526020600020905b8154815290600101906020018083116105f957829003601f168201915b505050505081565b60008181526006602052604090205460609073ffffffffffffffffffffffffffffffffffffffff166106d2576040517f08c379a000000000000000000000000000000000000000000000000000000000815260206004820152602560248201527f4552433732315472616461626c65237572693a204e4f4e4558495354454e545f60448201527f544f4b454e000000000000000000000000000000000000000000000000000000606482015260840161046e565b6104a76106de836112e3565b6106e784611377565b6114bf565b73ffffffffffffffffffffffffffffffffffffffff851633148061071557506107158533610f30565b6107a1576040517f08c379a000000000000000000000000000000000000000000000000000000000815260206004820152603260248201527f455243313135353a207472616e736665722063616c6c6572206973206e6f742060448201527f6f776e6572206e6f7220617070726f7665640000000000000000000000000000606482015260840161046e565b6107ae8585858585611502565b5050505050565b60608151835114610848576040517f08c379a000000000000000000000000000000000000000000000000000000000815260206004820152602960248201527f455243313135353a206163636f756e747320616e6420696473206c656e67746860448201527f206d69736d617463680000000000000000000000000000000000000000000000606482015260840161046e565b6000835167ffffffffffffffff811115610864576108646130a3565b60405190808252806020026020018201604052801561088d578160200160208202803683370190505b50905060005b8451811015610905576108d88582815181106108b1576108b16137bc565b60200260200101518583815181106108cb576108cb6137bc565b60200260200101516103cd565b8282815181106108ea576108ea6137bc565b60209081029190910101526108fe8161381a565b9050610893565b509392505050565b73ffffffffffffffffffffffffffffffffffffffff831633148061093657506109368333610f30565b6109c2576040517f08c379a000000000000000000000000000000000000000000000000000000000815260206004820152602960248201527f455243313135353a2063616c6c6572206973206e6f74206f776e6572206e6f7260448201527f20617070726f7665640000000000000000000000000000000000000000000000606482015260840161046e565b6109cd83838361183c565b505050565b60035473ffffffffffffffffffffffffffffffffffffffff163314610a53576040517f08c379a000000000000000000000000000000000000000000000000000000000815260206004820181905260248201527f4f776e61626c653a2063616c6c6572206973206e6f7420746865206f776e6572604482015260640161046e565b610a5d6000611b55565b565b60035473ffffffffffffffffffffffffffffffffffffffff163314610ae0576040517f08c379a000000000000000000000000000000000000000000000000000000000815260206004820181905260248201527f4f776e61626c653a2063616c6c6572206973206e6f7420746865206f776e6572604482015260640161046e565b610aec84848484611bcc565b60008381526007602052604081208054849290610b0a908490613853565b909155505050505050565b60035473ffffffffffffffffffffffffffffffffffffffff163314610b96576040517f08c379a000000000000000000000000000000000000000000000000000000000815260206004820181905260248201527f4f776e61626c653a2063616c6c6572206973206e6f7420746865206f776e6572604482015260640161046e565b610b9f81611d33565b50565b6009805461059d90613768565b610bba338383611d46565b5050565b60005b8351811015610cfe576000848281518110610bde57610bde6137bc565b6020908102919091018101516000818152600690925260409091205490915073ffffffffffffffffffffffffffffffffffffffff163314610ca1576040517f08c379a000000000000000000000000000000000000000000000000000000000815260206004820152602f60248201527f455243313135355472616461626c652362617463684d696e743a204f4e4c595f60448201527f43524541544f525f414c4c4f5745440000000000000000000000000000000000606482015260840161046e565b6000848381518110610cb557610cb56137bc565b6020026020010151905080600760008481526020019081526020016000206000828254610ce29190613853565b9250508190555050508080610cf69061381a565b915050610bc1565b50610d0b84848484611e9a565b50505050565b73ffffffffffffffffffffffffffffffffffffffff8216610db4576040517f08c379a000000000000000000000000000000000000000000000000000000000815260206004820152602c60248201527f455243313135355472616461626c652373657443726561746f723a20494e564160448201527f4c49445f414444524553532e0000000000000000000000000000000000000000606482015260840161046e565b60005b81518110156109cd576000828281518110610dd457610dd46137bc565b60200260200101519050610de88482612113565b5080610df38161381a565b915050610db7565b60035460009073ffffffffffffffffffffffffffffffffffffffff163314610e7f576040517f08c379a000000000000000000000000000000000000000000000000000000000815260206004820181905260248201527f4f776e61626c653a2063616c6c6572206973206e6f7420746865206f776e6572604482015260640161046e565b6000610e8961221c565b9050610e93612232565b600081815260066020526040902080547fffffffffffffffffffffffff00000000000000000000000000000000000000001633179055835115610f0957807f6bb7ff708619ba0610cba295a58592e0451dee2622938c8755667688daf3529b85604051610f009190613077565b60405180910390a25b610f1586828786611bcc565b60008181526007602052604090208590559050949350505050565b600480546040517fc455279100000000000000000000000000000000000000000000000000000000815273ffffffffffffffffffffffffffffffffffffffff8581169382019390935260009291821691841690829063c455279190602401602060405180830381865afa158015610fab573d6000803e3d6000fd5b505050506040513d601f19601f82011682018060405250810190610fcf919061386b565b73ffffffffffffffffffffffffffffffffffffffff161415610ff55760019150506104a7565b73ffffffffffffffffffffffffffffffffffffffff80851660009081526001602090815260408083209387168352929052205460ff165b949350505050565b73ffffffffffffffffffffffffffffffffffffffff851633148061105d575061105d8533610f30565b6110e9576040517f08c379a000000000000000000000000000000000000000000000000000000000815260206004820152602960248201527f455243313135353a2063616c6c6572206973206e6f74206f776e6572206e6f7260448201527f20617070726f7665640000000000000000000000000000000000000000000000606482015260840161046e565b6107ae8585858585612249565b60035473ffffffffffffffffffffffffffffffffffffffff163314611177576040517f08c379a000000000000000000000000000000000000000000000000000000000815260206004820181905260248201527f4f776e61626c653a2063616c6c6572206973206e6f7420746865206f776e6572604482015260640161046e565b73ffffffffffffffffffffffffffffffffffffffff811661121a576040517f08c379a000000000000000000000000000000000000000000000000000000000815260206004820152602660248201527f4f776e61626c653a206e6577206f776e657220697320746865207a65726f206160448201527f6464726573730000000000000000000000000000000000000000000000000000606482015260840161046e565b610b9f81611b55565b73ffffffffffffffffffffffffffffffffffffffff831633148061124c575061124c8333610f30565b6112d8576040517f08c379a000000000000000000000000000000000000000000000000000000000815260206004820152602960248201527f455243313135353a2063616c6c6572206973206e6f74206f776e6572206e6f7260448201527f20617070726f7665640000000000000000000000000000000000000000000000606482015260840161046e565b6109cd83838361247a565b6060600280546112f290613768565b80601f016020809104026020016040519081016040528092919081815260200182805461131e90613768565b801561136b5780601f106113405761010080835404028352916020019161136b565b820191906000526020600020905b81548152906001019060200180831161134e57829003601f168201915b50505050509050919050565b6060816113b757505060408051808201909152600181527f3000000000000000000000000000000000000000000000000000000000000000602082015290565b8160005b81156113e157806113cb8161381a565b91506113da9050600a836138b7565b91506113bb565b60008167ffffffffffffffff8111156113fc576113fc6130a3565b6040519080825280601f01601f191660200182016040528015611426576020820181803683370190505b50905060006114366001846138cb565b90505b85156114b65761144a600a876138e2565b611455906030613853565b60f81b8282611463816138f6565b935081518110611475576114756137bc565b60200101907effffffffffffffffffffffffffffffffffffffffffffffffffffffffffffff1916908160001a9053506114af600a876138b7565b9550611439565b50949350505050565b60606114fb8383604051806020016040528060008152506040518060200160405280600081525060405180602001604052806000815250612682565b9392505050565b8151835114611593576040517f08c379a000000000000000000000000000000000000000000000000000000000815260206004820152602860248201527f455243313135353a2069647320616e6420616d6f756e7473206c656e6774682060448201527f6d69736d61746368000000000000000000000000000000000000000000000000606482015260840161046e565b73ffffffffffffffffffffffffffffffffffffffff8416611636576040517f08c379a000000000000000000000000000000000000000000000000000000000815260206004820152602560248201527f455243313135353a207472616e7366657220746f20746865207a65726f20616460448201527f6472657373000000000000000000000000000000000000000000000000000000606482015260840161046e565b3360005b84518110156117a7576000858281518110611657576116576137bc565b602002602001015190506000858381518110611675576116756137bc565b6020908102919091018101516000848152808352604080822073ffffffffffffffffffffffffffffffffffffffff8e168352909352919091205490915081811015611742576040517f08c379a000000000000000000000000000000000000000000000000000000000815260206004820152602a60248201527f455243313135353a20696e73756666696369656e742062616c616e636520666f60448201527f72207472616e7366657200000000000000000000000000000000000000000000606482015260840161046e565b60008381526020818152604080832073ffffffffffffffffffffffffffffffffffffffff8e8116855292528083208585039055908b1682528120805484929061178c908490613853565b92505081905550505050806117a09061381a565b905061163a565b508473ffffffffffffffffffffffffffffffffffffffff168673ffffffffffffffffffffffffffffffffffffffff168273ffffffffffffffffffffffffffffffffffffffff167f4a39dc06d4c0dbc64b70af90fd698a233a518aa5d07e595d983b8c0526c8f7fb878760405161181e92919061392b565b60405180910390a4611834818787878787612a57565b505050505050565b73ffffffffffffffffffffffffffffffffffffffff83166118df576040517f08c379a000000000000000000000000000000000000000000000000000000000815260206004820152602360248201527f455243313135353a206275726e2066726f6d20746865207a65726f206164647260448201527f6573730000000000000000000000000000000000000000000000000000000000606482015260840161046e565b8051825114611970576040517f08c379a000000000000000000000000000000000000000000000000000000000815260206004820152602860248201527f455243313135353a2069647320616e6420616d6f756e7473206c656e6774682060448201527f6d69736d61746368000000000000000000000000000000000000000000000000606482015260840161046e565b604080516020810190915260009081905233905b8351811015611acf5760008482815181106119a1576119a16137bc565b6020026020010151905060008483815181106119bf576119bf6137bc565b6020908102919091018101516000848152808352604080822073ffffffffffffffffffffffffffffffffffffffff8c168352909352919091205490915081811015611a8b576040517f08c379a0000000000000000000000000000000000000000000000000000000008152602060048201526024808201527f455243313135353a206275726e20616d6f756e7420657863656564732062616c60448201527f616e636500000000000000000000000000000000000000000000000000000000606482015260840161046e565b60009283526020838152604080852073ffffffffffffffffffffffffffffffffffffffff8b1686529091529092209103905580611ac78161381a565b915050611984565b50600073ffffffffffffffffffffffffffffffffffffffff168473ffffffffffffffffffffffffffffffffffffffff168273ffffffffffffffffffffffffffffffffffffffff167f4a39dc06d4c0dbc64b70af90fd698a233a518aa5d07e595d983b8c0526c8f7fb8686604051611b4792919061392b565b60405180910390a450505050565b6003805473ffffffffffffffffffffffffffffffffffffffff8381167fffffffffffffffffffffffff0000000000000000000000000000000000000000831681179093556040519116919082907f8be0079c531659141344cd1fd0a4f28419497f9722a3daafe3b4186f6b6457e090600090a35050565b73ffffffffffffffffffffffffffffffffffffffff8416611c6f576040517f08c379a000000000000000000000000000000000000000000000000000000000815260206004820152602160248201527f455243313135353a206d696e7420746f20746865207a65726f2061646472657360448201527f7300000000000000000000000000000000000000000000000000000000000000606482015260840161046e565b33611c8981600087611c8088612ce2565b6107ae88612ce2565b60008481526020818152604080832073ffffffffffffffffffffffffffffffffffffffff8916845290915281208054859290611cc6908490613853565b9091555050604080518581526020810185905273ffffffffffffffffffffffffffffffffffffffff80881692600092918516917fc3d58168c5ae7397731d063d5bbf3d657854427343f4c083240f7aacaa2d0f62910160405180910390a46107ae81600087878787612d2d565b8051610bba906002906020840190612eda565b8173ffffffffffffffffffffffffffffffffffffffff168373ffffffffffffffffffffffffffffffffffffffff161415611e02576040517f08c379a000000000000000000000000000000000000000000000000000000000815260206004820152602960248201527f455243313135353a2073657474696e6720617070726f76616c2073746174757360448201527f20666f722073656c660000000000000000000000000000000000000000000000606482015260840161046e565b73ffffffffffffffffffffffffffffffffffffffff83811660008181526001602090815260408083209487168084529482529182902080547fffffffffffffffffffffffffffffffffffffffffffffffffffffffffffffff001686151590811790915591519182527f17307eab39ab6107e8899845ad3d59bd9653f200f220920489ca2b5937696c31910160405180910390a3505050565b73ffffffffffffffffffffffffffffffffffffffff8416611f3d576040517f08c379a000000000000000000000000000000000000000000000000000000000815260206004820152602160248201527f455243313135353a206d696e7420746f20746865207a65726f2061646472657360448201527f7300000000000000000000000000000000000000000000000000000000000000606482015260840161046e565b8151835114611fce576040517f08c379a000000000000000000000000000000000000000000000000000000000815260206004820152602860248201527f455243313135353a2069647320616e6420616d6f756e7473206c656e6774682060448201527f6d69736d61746368000000000000000000000000000000000000000000000000606482015260840161046e565b3360005b845181101561208457838181518110611fed57611fed6137bc565b602002602001015160008087848151811061200a5761200a6137bc565b6020026020010151815260200190815260200160002060008873ffffffffffffffffffffffffffffffffffffffff1673ffffffffffffffffffffffffffffffffffffffff168152602001908152602001600020600082825461206c9190613853565b9091555081905061207c8161381a565b915050611fd2565b508473ffffffffffffffffffffffffffffffffffffffff16600073ffffffffffffffffffffffffffffffffffffffff168273ffffffffffffffffffffffffffffffffffffffff167f4a39dc06d4c0dbc64b70af90fd698a233a518aa5d07e595d983b8c0526c8f7fb87876040516120fc92919061392b565b60405180910390a46107ae81600087878787612a57565b600081815260066020526040902054819073ffffffffffffffffffffffffffffffffffffffff1633146121c8576040517f08c379a000000000000000000000000000000000000000000000000000000000815260206004820152603160248201527f455243313135355472616461626c652363726561746f724f6e6c793a204f4e4c60448201527f595f43524541544f525f414c4c4f574544000000000000000000000000000000606482015260840161046e565b50600090815260066020526040902080547fffffffffffffffffffffffff00000000000000000000000000000000000000001673ffffffffffffffffffffffffffffffffffffffff92909216919091179055565b6000600554600161222d9190613853565b905090565b600580549060006122428361381a565b9190505550565b73ffffffffffffffffffffffffffffffffffffffff84166122ec576040517f08c379a000000000000000000000000000000000000000000000000000000000815260206004820152602560248201527f455243313135353a207472616e7366657220746f20746865207a65726f20616460448201527f6472657373000000000000000000000000000000000000000000000000000000606482015260840161046e565b336122fc818787611c8088612ce2565b60008481526020818152604080832073ffffffffffffffffffffffffffffffffffffffff8a168452909152902054838110156123ba576040517f08c379a000000000000000000000000000000000000000000000000000000000815260206004820152602a60248201527f455243313135353a20696e73756666696369656e742062616c616e636520666f60448201527f72207472616e7366657200000000000000000000000000000000000000000000606482015260840161046e565b60008581526020818152604080832073ffffffffffffffffffffffffffffffffffffffff8b8116855292528083208785039055908816825281208054869290612404908490613853565b9091555050604080518681526020810186905273ffffffffffffffffffffffffffffffffffffffff808916928a821692918616917fc3d58168c5ae7397731d063d5bbf3d657854427343f4c083240f7aacaa2d0f62910160405180910390a4612471828888888888612d2d565b50505050505050565b73ffffffffffffffffffffffffffffffffffffffff831661251d576040517f08c379a000000000000000000000000000000000000000000000000000000000815260206004820152602360248201527f455243313135353a206275726e2066726f6d20746865207a65726f206164647260448201527f6573730000000000000000000000000000000000000000000000000000000000606482015260840161046e565b3361254d8185600061252e87612ce2565b61253787612ce2565b5050604080516020810190915260009052505050565b60008381526020818152604080832073ffffffffffffffffffffffffffffffffffffffff881684529091529020548281101561260a576040517f08c379a0000000000000000000000000000000000000000000000000000000008152602060048201526024808201527f455243313135353a206275726e20616d6f756e7420657863656564732062616c60448201527f616e636500000000000000000000000000000000000000000000000000000000606482015260840161046e565b60008481526020818152604080832073ffffffffffffffffffffffffffffffffffffffff898116808652918452828520888703905582518981529384018890529092908616917fc3d58168c5ae7397731d063d5bbf3d657854427343f4c083240f7aacaa2d0f62910160405180910390a45050505050565b805182518451865188516060948a948a948a948a948a946000949093909290916126ac9190613853565b6126b69190613853565b6126c09190613853565b6126ca9190613853565b67ffffffffffffffff8111156126e2576126e26130a3565b6040519080825280601f01601f19166020018201604052801561270c576020820181803683370190505b509050806000805b88518110156127b45788818151811061272f5761272f6137bc565b01602001517fff000000000000000000000000000000000000000000000000000000000000001683836127618161381a565b945081518110612773576127736137bc565b60200101907effffffffffffffffffffffffffffffffffffffffffffffffffffffffffffff1916908160001a905350806127ac8161381a565b915050612714565b5060005b8751811015612858578781815181106127d3576127d36137bc565b01602001517fff000000000000000000000000000000000000000000000000000000000000001683836128058161381a565b945081518110612817576128176137bc565b60200101907effffffffffffffffffffffffffffffffffffffffffffffffffffffffffffff1916908160001a905350806128508161381a565b9150506127b8565b5060005b86518110156128fc57868181518110612877576128776137bc565b01602001517fff000000000000000000000000000000000000000000000000000000000000001683836128a98161381a565b9450815181106128bb576128bb6137bc565b60200101907effffffffffffffffffffffffffffffffffffffffffffffffffffffffffffff1916908160001a905350806128f48161381a565b91505061285c565b5060005b85518110156129a05785818151811061291b5761291b6137bc565b01602001517fff0000000000000000000000000000000000000000000000000000000000000016838361294d8161381a565b94508151811061295f5761295f6137bc565b60200101907effffffffffffffffffffffffffffffffffffffffffffffffffffffffffffff1916908160001a905350806129988161381a565b915050612900565b5060005b8451811015612a44578481815181106129bf576129bf6137bc565b01602001517fff000000000000000000000000000000000000000000000000000000000000001683836129f18161381a565b945081518110612a0357612a036137bc565b60200101907effffffffffffffffffffffffffffffffffffffffffffffffffffffffffffff1916908160001a90535080612a3c8161381a565b9150506129a4565b50909d9c50505050505050505050505050565b73ffffffffffffffffffffffffffffffffffffffff84163b15611834576040517fbc197c8100000000000000000000000000000000000000000000000000000000815273ffffffffffffffffffffffffffffffffffffffff85169063bc197c8190612ace9089908990889088908890600401613959565b6020604051808303816000875af1925050508015612b27575060408051601f3d9081017fffffffffffffffffffffffffffffffffffffffffffffffffffffffffffffffe0168201909252612b24918101906139c4565b60015b612c1157612b336139e1565b806308c379a01415612b875750612b486139fd565b80612b535750612b89565b806040517f08c379a000000000000000000000000000000000000000000000000000000000815260040161046e9190613077565b505b6040517f08c379a000000000000000000000000000000000000000000000000000000000815260206004820152603460248201527f455243313135353a207472616e7366657220746f206e6f6e204552433131353560448201527f526563656976657220696d706c656d656e746572000000000000000000000000606482015260840161046e565b7fffffffff0000000000000000000000000000000000000000000000000000000081167fbc197c810000000000000000000000000000000000000000000000000000000014612471576040517f08c379a000000000000000000000000000000000000000000000000000000000815260206004820152602860248201527f455243313135353a204552433131353552656365697665722072656a6563746560448201527f6420746f6b656e73000000000000000000000000000000000000000000000000606482015260840161046e565b60408051600180825281830190925260609160009190602080830190803683370190505090508281600081518110612d1c57612d1c6137bc565b602090810291909101015292915050565b73ffffffffffffffffffffffffffffffffffffffff84163b15611834576040517ff23a6e6100000000000000000000000000000000000000000000000000000000815273ffffffffffffffffffffffffffffffffffffffff85169063f23a6e6190612da49089908990889088908890600401613aa5565b6020604051808303816000875af1925050508015612dfd575060408051601f3d9081017fffffffffffffffffffffffffffffffffffffffffffffffffffffffffffffffe0168201909252612dfa918101906139c4565b60015b612e0957612b336139e1565b7fffffffff0000000000000000000000000000000000000000000000000000000081167ff23a6e610000000000000000000000000000000000000000000000000000000014612471576040517f08c379a000000000000000000000000000000000000000000000000000000000815260206004820152602860248201527f455243313135353a204552433131353552656365697665722072656a6563746560448201527f6420746f6b656e73000000000000000000000000000000000000000000000000606482015260840161046e565b828054612ee690613768565b90600052602060002090601f016020900481019282612f085760008555612f4e565b82601f10612f2157805160ff1916838001178555612f4e565b82800160010185558215612f4e579182015b82811115612f4e578251825591602001919060010190612f33565b50612f5a929150612f5e565b5090565b5b80821115612f5a5760008155600101612f5f565b73ffffffffffffffffffffffffffffffffffffffff81168114610b9f57600080fd5b60008060408385031215612fa857600080fd5b8235612fb381612f73565b946020939093013593505050565b7fffffffff0000000000000000000000000000000000000000000000000000000081168114610b9f57600080fd5b60006020828403121561300157600080fd5b81356114fb81612fc1565b6000815180845260005b8181101561303257602081850181015186830182015201613016565b81811115613044576000602083870101525b50601f017fffffffffffffffffffffffffffffffffffffffffffffffffffffffffffffffe0169290920160200192915050565b6020815260006114fb602083018461300c565b60006020828403121561309c57600080fd5b5035919050565b7f4e487b7100000000000000000000000000000000000000000000000000000000600052604160045260246000fd5b7fffffffffffffffffffffffffffffffffffffffffffffffffffffffffffffffe0601f830116810181811067ffffffffffffffff82111715613116576131166130a3565b6040525050565b600067ffffffffffffffff821115613137576131376130a3565b5060051b60200190565b600082601f83011261315257600080fd5b8135602061315f8261311d565b60405161316c82826130d2565b83815260059390931b850182019282810191508684111561318c57600080fd5b8286015b848110156131a75780358352918301918301613190565b509695505050505050565b600082601f8301126131c357600080fd5b813567ffffffffffffffff8111156131dd576131dd6130a3565b60405161321260207fffffffffffffffffffffffffffffffffffffffffffffffffffffffffffffffe0601f85011601826130d2565b81815284602083860101111561322757600080fd5b816020850160208301376000918101602001919091529392505050565b600080600080600060a0868803121561325c57600080fd5b853561326781612f73565b9450602086013561327781612f73565b9350604086013567ffffffffffffffff8082111561329457600080fd5b6132a089838a01613141565b945060608801359150808211156132b657600080fd5b6132c289838a01613141565b935060808801359150808211156132d857600080fd5b506132e5888289016131b2565b9150509295509295909350565b6000806040838503121561330557600080fd5b823567ffffffffffffffff8082111561331d57600080fd5b818501915085601f83011261333157600080fd5b8135602061333e8261311d565b60405161334b82826130d2565b83815260059390931b850182019282810191508984111561336b57600080fd5b948201945b8386101561339257853561338381612f73565b82529482019490820190613370565b965050860135925050808211156133a857600080fd5b506133b585828601613141565b9150509250929050565b600081518084526020808501945080840160005b838110156133ef578151875295820195908201906001016133d3565b509495945050505050565b6020815260006114fb60208301846133bf565b60008060006060848603121561342257600080fd5b833561342d81612f73565b9250602084013567ffffffffffffffff8082111561344a57600080fd5b61345687838801613141565b9350604086013591508082111561346c57600080fd5b5061347986828701613141565b9150509250925092565b6000806000806080858703121561349957600080fd5b84356134a481612f73565b93506020850135925060408501359150606085013567ffffffffffffffff8111156134ce57600080fd5b6134da878288016131b2565b91505092959194509250565b6000602082840312156134f857600080fd5b813567ffffffffffffffff81111561350f57600080fd5b61102c848285016131b2565b6000806040838503121561352e57600080fd5b823561353981612f73565b91506020830135801515811461354e57600080fd5b809150509250929050565b6000806000806080858703121561356f57600080fd5b843561357a81612f73565b9350602085013567ffffffffffffffff8082111561359757600080fd5b6135a388838901613141565b945060408701359150808211156135b957600080fd5b6135c588838901613141565b935060608701359150808211156135db57600080fd5b506134da878288016131b2565b600080604083850312156135fb57600080fd5b823561360681612f73565b9150602083013567ffffffffffffffff81111561362257600080fd5b6133b585828601613141565b6000806000806080858703121561364457600080fd5b843561364f81612f73565b935060208501359250604085013567ffffffffffffffff8082111561367357600080fd5b6135c5888389016131b2565b6000806040838503121561369257600080fd5b823561369d81612f73565b9150602083013561354e81612f73565b600080600080600060a086880312156136c557600080fd5b85356136d081612f73565b945060208601356136e081612f73565b93506040860135925060608601359150608086013567ffffffffffffffff81111561370a57600080fd5b6132e5888289016131b2565b60006020828403121561372857600080fd5b81356114fb81612f73565b60008060006060848603121561374857600080fd5b833561375381612f73565b95602085013595506040909401359392505050565b600181811c9082168061377c57607f821691505b602082108114156137b6577f4e487b7100000000000000000000000000000000000000000000000000000000600052602260045260246000fd5b50919050565b7f4e487b7100000000000000000000000000000000000000000000000000000000600052603260045260246000fd5b7f4e487b7100000000000000000000000000000000000000000000000000000000600052601160045260246000fd5b60007fffffffffffffffffffffffffffffffffffffffffffffffffffffffffffffffff82141561384c5761384c6137eb565b5060010190565b60008219821115613866576138666137eb565b500190565b60006020828403121561387d57600080fd5b81516114fb81612f73565b7f4e487b7100000000000000000000000000000000000000000000000000000000600052601260045260246000fd5b6000826138c6576138c6613888565b500490565b6000828210156138dd576138dd6137eb565b500390565b6000826138f1576138f1613888565b500690565b600081613905576139056137eb565b507fffffffffffffffffffffffffffffffffffffffffffffffffffffffffffffffff0190565b60408152600061393e60408301856133bf565b828103602084015261395081856133bf565b95945050505050565b600073ffffffffffffffffffffffffffffffffffffffff808816835280871660208401525060a0604083015261399260a08301866133bf565b82810360608401526139a481866133bf565b905082810360808401526139b8818561300c565b98975050505050505050565b6000602082840312156139d657600080fd5b81516114fb81612fc1565b600060033d11156139fa5760046000803e5060005160e01c5b90565b600060443d1015613a0b5790565b6040517ffffffffffffffffffffffffffffffffffffffffffffffffffffffffffffffffc803d016004833e81513d67ffffffffffffffff8160248401118184111715613a5957505050505090565b8285019150815181811115613a715750505050505090565b843d8701016020828501011115613a8b5750505050505090565b613a9a602082860101876130d2565b509095945050505050565b600073ffffffffffffffffffffffffffffffffffffffff808816835280871660208401525084604083015283606083015260a06080830152613aea60a083018461300c565b97965050505050505056fea2646970667358221220dbcb81b45481d0c370bd3d9a0537c9bd4c083150fa94e576d73c751f9950ad7364736f6c634300080a0033",
  "immutableReferences": {},
  "source": "// SPDX-License-Identifier: MIT\npragma solidity =0.8.10;\n\nimport \"@openzeppelin/contracts/access/Ownable.sol\";\nimport '@openzeppelin/contracts/token/ERC1155/ERC1155.sol';\nimport '@openzeppelin/contracts/token/ERC1155/extensions/IERC1155MetadataURI.sol';\nimport '@openzeppelin/contracts/token/ERC1155/extensions/ERC1155Burnable.sol';\nimport \"./Strings.sol\";\n\ncontract OwnableDelegateProxy {}\n\ncontract ProxyRegistry {\n    mapping(address => OwnableDelegateProxy) public proxies;\n}\n\n/**\n * @title ERC1155Tradable\n * ERC1155Tradable - ERC1155 contract that whitelists an operator address, has\n * create and mint functionality, and supports useful standards from OpenZeppelin,\n * like _exists(), name(), symbol(), and totalSupply()\n */\ncontract ERC1155Tradable is ERC1155Burnable, Ownable {\n    using Strings for string;\n\n    address proxyRegistryAddress;\n    uint256 private _currentTokenID = 0;\n    mapping(uint256 => address) public creators;\n    mapping(uint256 => uint256) public tokenSupply;\n    // Contract name\n    string public name;\n    // Contract symbol\n    string public symbol;\n\n    /**\n    * @dev Require msg.sender to be the creator of the token id\n    */\n    modifier creatorOnly(uint256 _id) {\n        require(creators[_id] == msg.sender, \"ERC1155Tradable#creatorOnly: ONLY_CREATOR_ALLOWED\");\n        _;\n    }\n\n    /**\n    * @dev Require msg.sender to own more than 0 of the token id\n    */\n    modifier ownersOnly(uint256 _id) {\n        require(balanceOf(msg.sender, _id) > 0, \"ERC1155Tradable#ownersOnly: ONLY_OWNERS_ALLOWED\");\n        _;\n    }\n\n    constructor(\n        string memory _name,\n        string memory _symbol,\n        string memory _url,\n        address _proxyRegistryAddress\n    ) ERC1155(_url) {\n        name = _name;\n        symbol = _symbol;\n        proxyRegistryAddress = _proxyRegistryAddress;\n    }\n\n    function uri(\n        uint256 _id\n    ) override public view returns (string memory) {\n        require(_exists(_id), \"ERC721Tradable#uri: NONEXISTENT_TOKEN\");\n        return Strings.strConcat(\n            ERC1155.uri(_id),\n            Strings.uint2str(_id)\n        );\n    }\n\n    /**\n     * @dev Returns the total quantity for a token ID\n     * @param _id uint256 ID of the token to query\n     * @return amount of token in existence\n     */\n    function totalSupply(\n        uint256 _id\n    ) public view returns (uint256) {\n        return tokenSupply[_id];\n    }\n\n    /**\n    * @dev Will update the base URL of token's URI\n    * @param _newBaseMetadataURI New base URL of token's URI\n    */\n    function setBaseMetadataURI(\n        string memory _newBaseMetadataURI\n    ) public onlyOwner {\n        ERC1155._setURI(_newBaseMetadataURI);\n    }\n\n    /**\n     * @dev Creates a new token type and assigns _initialSupply to an address\n     * NOTE: remove onlyOwner if you want third parties to create new tokens on your contract (which may change your IDs)\n     * @param _initialOwner address of the first owner of the token\n     * @param _initialSupply amount to supply the first owner\n     * @param _uri Optional URI for this token type\n     * @param _data Data to pass if receiver is contract\n     * @return The newly created token ID\n     */\n    function create(\n        address _initialOwner,\n        uint256 _initialSupply,\n        string memory _uri,\n        bytes memory _data\n    ) public onlyOwner virtual returns (uint256) {\n\n        uint256 _id = _getNextTokenID();\n        _incrementTokenTypeId();\n        creators[_id] = msg.sender;\n\n        if (bytes(_uri).length > 0) {\n            emit URI(_uri, _id);\n        }\n\n        _mint(_initialOwner, _id, _initialSupply, _data);\n        tokenSupply[_id] = _initialSupply;\n        return _id;\n    }\n\n    /**\n     * @dev Mints some amount of tokens to an address\n     * @param _to          Address of the future owner of the token\n     * @param _id          Token ID to mint\n     * @param _quantity    Amount of tokens to mint\n     * @param _data        Data to pass if receiver is contract\n     */\n    function mint(\n        address _to,\n        uint256 _id,\n        uint256 _quantity,\n        bytes memory _data\n    ) public virtual onlyOwner {\n        _mint(_to, _id, _quantity, _data);\n        tokenSupply[_id] += _quantity;\n    }\n\n    /**\n     * @dev Mint tokens for each id in _ids\n     * @param _to          The address to mint tokens to\n     * @param _ids         Array of ids to mint\n     * @param _quantities  Array of amounts of tokens to mint per id\n     * @param _data        Data to pass if receiver is contract\n     */\n    function batchMint(\n        address _to,\n        uint256[] memory _ids,\n        uint256[] memory _quantities,\n        bytes memory _data\n    ) public {\n        for (uint256 i = 0; i < _ids.length; i++) {\n            uint256 _id = _ids[i];\n            require(creators[_id] == msg.sender, \"ERC1155Tradable#batchMint: ONLY_CREATOR_ALLOWED\");\n            uint256 quantity = _quantities[i];\n            tokenSupply[_id] += quantity;\n        }\n        _mintBatch(_to, _ids, _quantities, _data);\n    }\n\n    /**\n     * @dev Change the creator address for given tokens\n     * @param _to   Address of the new creator\n     * @param _ids  Array of Token IDs to change creator\n     */\n    function setCreator(\n        address _to,\n        uint256[] memory _ids\n    ) public {\n        require(_to != address(0), \"ERC1155Tradable#setCreator: INVALID_ADDRESS.\");\n        for (uint256 i = 0; i < _ids.length; i++) {\n            uint256 id = _ids[i];\n            _setCreator(_to, id);\n        }\n    }\n\n    /**\n     * Override isApprovedForAll to whitelist user's OpenSea proxy accounts to enable gas-free listings.\n     */\n    function isApprovedForAll(\n        address _owner,\n        address _operator\n    ) override public view returns (bool isOperator) {\n        // Whitelist OpenSea proxy contract for easy trading.\n        ProxyRegistry proxyRegistry = ProxyRegistry(proxyRegistryAddress);\n        if (address(proxyRegistry.proxies(_owner)) == _operator) {\n            return true;\n        }\n\n        return ERC1155.isApprovedForAll(_owner, _operator);\n    }\n\n    /**\n     * @dev Change the creator address for given token\n     * @param _to   Address of the new creator\n     * @param _id  Token IDs to change creator of\n     */\n    function _setCreator(address _to, uint256 _id) internal creatorOnly(_id)\n    {\n        creators[_id] = _to;\n    }\n\n    /**\n     * @dev Returns whether the specified token exists by checking to see if it has a creator\n     * @param _id uint256 ID of the token to query the existence of\n     * @return bool whether the token exists\n     */\n    function _exists(\n        uint256 _id\n    ) internal view returns (bool) {\n        return creators[_id] != address(0);\n    }\n\n    /**\n     * @dev calculates the next token ID based on value of _currentTokenID\n     * @return uint256 for the next token ID\n     */\n    function _getNextTokenID() private view returns (uint256) {\n        return _currentTokenID + 1;\n    }\n\n    /**\n     * @dev increments the value of _currentTokenID\n     */\n    function _incrementTokenTypeId() private {\n        _currentTokenID++;\n    }\n}",
  "sourcePath": "/Users/ilyk/projects/midgardtech/solidity/moonlift/chainwars/lootbox/contracts/libs/opensea/ERC1155Tradable.sol",
  "compiler": {
    "name": "solc",
    "version": "0.8.10+commit.fc410830.Emscripten.clang"
  },
  "schemaVersion": "3.4.3",
  "updatedAt": "2022-02-14T10:06:15.582Z",
  "devdoc": {
    "kind": "dev",
    "methods": {
      "balanceOf(address,uint256)": {
        "details": "See {IERC1155-balanceOf}. Requirements: - `account` cannot be the zero address."
      },
      "balanceOfBatch(address[],uint256[])": {
        "details": "See {IERC1155-balanceOfBatch}. Requirements: - `accounts` and `ids` must have the same length."
      },
      "batchMint(address,uint256[],uint256[],bytes)": {
        "details": "Mint tokens for each id in _ids",
        "params": {
          "_data": "Data to pass if receiver is contract",
          "_ids": "Array of ids to mint",
          "_quantities": "Array of amounts of tokens to mint per id",
          "_to": "The address to mint tokens to"
        }
      },
      "create(address,uint256,string,bytes)": {
        "details": "Creates a new token type and assigns _initialSupply to an address NOTE: remove onlyOwner if you want third parties to create new tokens on your contract (which may change your IDs)",
        "params": {
          "_data": "Data to pass if receiver is contract",
          "_initialOwner": "address of the first owner of the token",
          "_initialSupply": "amount to supply the first owner",
          "_uri": "Optional URI for this token type"
        },
        "returns": {
          "_0": "The newly created token ID"
        }
      },
      "mint(address,uint256,uint256,bytes)": {
        "details": "Mints some amount of tokens to an address",
        "params": {
          "_data": "Data to pass if receiver is contract",
          "_id": "Token ID to mint",
          "_quantity": "Amount of tokens to mint",
          "_to": "Address of the future owner of the token"
        }
      },
      "owner()": {
        "details": "Returns the address of the current owner."
      },
      "renounceOwnership()": {
        "details": "Leaves the contract without owner. It will not be possible to call `onlyOwner` functions anymore. Can only be called by the current owner. NOTE: Renouncing ownership will leave the contract without an owner, thereby removing any functionality that is only available to the owner."
      },
      "safeBatchTransferFrom(address,address,uint256[],uint256[],bytes)": {
        "details": "See {IERC1155-safeBatchTransferFrom}."
      },
      "safeTransferFrom(address,address,uint256,uint256,bytes)": {
        "details": "See {IERC1155-safeTransferFrom}."
      },
      "setApprovalForAll(address,bool)": {
        "details": "See {IERC1155-setApprovalForAll}."
      },
      "setBaseMetadataURI(string)": {
        "details": "Will update the base URL of token's URI",
        "params": {
          "_newBaseMetadataURI": "New base URL of token's URI"
        }
      },
      "setCreator(address,uint256[])": {
        "details": "Change the creator address for given tokens",
        "params": {
          "_ids": "Array of Token IDs to change creator",
          "_to": "Address of the new creator"
        }
      },
      "supportsInterface(bytes4)": {
        "details": "See {IERC165-supportsInterface}."
      },
      "totalSupply(uint256)": {
        "details": "Returns the total quantity for a token ID",
        "params": {
          "_id": "uint256 ID of the token to query"
        },
        "returns": {
          "_0": "amount of token in existence"
        }
      },
      "transferOwnership(address)": {
        "details": "Transfers ownership of the contract to a new account (`newOwner`). Can only be called by the current owner."
      }
    },
    "title": "ERC1155Tradable ERC1155Tradable - ERC1155 contract that whitelists an operator address, has create and mint functionality, and supports useful standards from OpenZeppelin, like _exists(), name(), symbol(), and totalSupply()",
    "version": 1
  },
  "userdoc": {
    "kind": "user",
    "methods": {
      "isApprovedForAll(address,address)": {
        "notice": "Override isApprovedForAll to whitelist user's OpenSea proxy accounts to enable gas-free listings."
      }
    },
    "version": 1
  }
}