{
  "contractName": "InitializeData",
  "abi": [
    {
      "inputs": [],
      "name": "BACKGROUND_Basic",
      "outputs": [
        {
          "internalType": "uint8",
          "name": "",
          "type": "uint8"
        }
      ],
      "stateMutability": "view",
      "type": "function"
    },
    {
      "inputs": [],
      "name": "BACKGROUND_Diamond",
      "outputs": [
        {
          "internalType": "uint8",
          "name": "",
          "type": "uint8"
        }
      ],
      "stateMutability": "view",
      "type": "function"
    },
    {
      "inputs": [],
      "name": "BACKGROUND_Gold",
      "outputs": [
        {
          "internalType": "uint8",
          "name": "",
          "type": "uint8"
        }
      ],
      "stateMutability": "view",
      "type": "function"
    },
    {
      "inputs": [],
      "name": "BACKGROUND_Rainbow",
      "outputs": [
        {
          "internalType": "uint8",
          "name": "",
          "type": "uint8"
        }
      ],
      "stateMutability": "view",
      "type": "function"
    },
    {
      "inputs": [],
      "name": "BORDER_Common",
      "outputs": [
        {
          "internalType": "uint8",
          "name": "",
          "type": "uint8"
        }
      ],
      "stateMutability": "view",
      "type": "function"
    },
    {
      "inputs": [],
      "name": "BORDER_Epic",
      "outputs": [
        {
          "internalType": "uint8",
          "name": "",
          "type": "uint8"
        }
      ],
      "stateMutability": "view",
      "type": "function"
    },
    {
      "inputs": [],
      "name": "BORDER_Legendary",
      "outputs": [
        {
          "internalType": "uint8",
          "name": "",
          "type": "uint8"
        }
      ],
      "stateMutability": "view",
      "type": "function"
    },
    {
      "inputs": [],
      "name": "BORDER_Rare",
      "outputs": [
        {
          "internalType": "uint8",
          "name": "",
          "type": "uint8"
        }
      ],
      "stateMutability": "view",
      "type": "function"
    }
  ],
  "bytecode": "0x61010a61003a600b82828239805160001a60731461002d57634e487b7160e01b600052600060045260246000fd5b30600052607381538281f3fe730000000000000000000000000000000000000000301460806040526004361060885760003560e01c80632d9c153e11605f5780632d9c153e1460bf578063613f02451460b15780636ae37ac71460c6578063a799d7f51460cd57600080fd5b80630937d26514608d57806311e4b0201460aa57806316108a471460b15780631c279cd91460b8575b600080fd5b6094600881565b60405160ff909116815260200160405180910390f35b6094600481565b6094600081565b6094600181565b6094600381565b6094600c81565b609460028156fea264697066735822122017cba278a6e3b5318d6ebe9a074fe6d410a49790a1defc507518cb672e46e1ce64736f6c634300080a0033",
  "immutableReferences": {},
  "source": "// SPDX-License-Identifier: MIT\npragma solidity =0.8.10;\n\n// @dev Using bitwise math for the matrix\n// Two bits are for Border type, and two other for the Background\n//\n//                  Basic 0000   Gold 0001   Diamond 0010   Rainbow 0011\n//  Common    0000     0000        0001          0010           0011\n//  Rare      0100     0100        0101          0110           0111\n//  Epic      1000     1000        1001          1010           1011\n//  Legendary 1100     1100        1101          1110           1111\n//\nlibrary InitializeData {\n    uint8 public constant BORDER_Common = 0;\n    uint8 public constant BORDER_Rare = 4;\n    uint8 public constant BORDER_Epic = 8;\n    uint8 public constant BORDER_Legendary = 12;\n\n    uint8 public constant BACKGROUND_Basic = 0;\n    uint8 public constant BACKGROUND_Gold = 1;\n    uint8 public constant BACKGROUND_Diamond = 2;\n    uint8 public constant BACKGROUND_Rainbow = 3;\n\n    function initCaps() internal returns (uint32[16] memory) {\n        uint32[16] memory cardCaps;\n\n        cardCaps[BORDER_Common | BACKGROUND_Basic] = 20e6;\n        cardCaps[BORDER_Common | BACKGROUND_Gold] = 4e6;\n        cardCaps[BORDER_Common | BACKGROUND_Diamond] = 2e6;\n        cardCaps[BORDER_Common | BACKGROUND_Rainbow] = 200e3;\n\n        cardCaps[BORDER_Rare | BACKGROUND_Basic] = 4e6;\n        cardCaps[BORDER_Rare | BACKGROUND_Gold] = 800e3;\n        cardCaps[BORDER_Rare | BACKGROUND_Diamond] = 400e3;\n        cardCaps[BORDER_Rare | BACKGROUND_Rainbow] = 40e3;\n\n        cardCaps[BORDER_Epic | BACKGROUND_Basic] = 2e6;\n        cardCaps[BORDER_Epic | BACKGROUND_Gold] = 400e3;\n        cardCaps[BORDER_Epic | BACKGROUND_Diamond] = 200e3;\n        cardCaps[BORDER_Epic | BACKGROUND_Rainbow] = 20e3;\n\n        cardCaps[BORDER_Legendary | BACKGROUND_Basic] = 200e3;\n        cardCaps[BORDER_Legendary | BACKGROUND_Gold] = 40e3;\n        cardCaps[BORDER_Legendary | BACKGROUND_Diamond] = 20e3;\n        cardCaps[BORDER_Legendary | BACKGROUND_Rainbow] = 200;\n\n        return cardCaps;\n    }\n\n    function typeCaps1() internal pure returns (uint32) {\n        return 380_050;\n    }\n\n    function typeCaps2() internal pure returns (uint32) {\n        return 8_200_000;\n    }\n\n    // Matrix for LB1\n    function initChances1() internal pure returns (uint24[] memory) {\n        uint24[] memory typeChances = new uint24[](6);\n\n        // BORDERS.Rare => BACKGROUNDS.Gold => 4.30%\n        typeChances[0] = BORDER_Rare | BACKGROUND_Gold | (430 << 4);\n        // BORDERS.Common => BACKGROUNDS.Diamond => 7.42%\n        typeChances[1] = BORDER_Common | BACKGROUND_Diamond | (742 << 4);\n        // BORDERS.Epic => BACKGROUNDS.Basic => 7.42%\n        typeChances[2] = BORDER_Epic | BACKGROUND_Basic | (742 << 4);\n        // BORDERS.Common => BACKGROUNDS.Gold => 14.84%\n        typeChances[3] = BORDER_Common | BACKGROUND_Gold | (1484 << 4);\n        // BORDERS.Rare => BACKGROUNDS.Basic => 14.84%\n        typeChances[4] = BORDER_Rare | BACKGROUND_Basic | (1484 << 4);\n        // BORDERS.Common => BACKGROUNDS.Basic => 51.19%\n        typeChances[5] = BORDER_Common | BACKGROUND_Basic | (5119 << 4);\n\n        return typeChances;\n    }\n\n    // Matrix for LB2 4x Random\n    function initChances2() internal pure returns (uint24[] memory) {\n        uint24[] memory typeChances = new uint24[](10);\n\n        // BORDERS.Legendary => BACKGROUNDS.Rainbow => 0.14%\n        typeChances[0] = BORDER_Legendary | BACKGROUND_Rainbow | (14 << 4);\n        // BORDERS.Epic => BACKGROUNDS.Rainbow => 1.43%\n        typeChances[1] = BORDER_Epic | BACKGROUND_Rainbow | (143 << 4);\n        // BORDERS.Legendary => BACKGROUNDS.Diamond => 1.43%\n        typeChances[2] = BORDER_Legendary | BACKGROUND_Diamond | (143 << 4);\n        // BORDERS.Rare => BACKGROUNDS.Rainbow => 2.86%\n        typeChances[3] = BORDER_Rare | BACKGROUND_Rainbow | (286 << 4);\n        // BORDERS.Legendary => BACKGROUNDS.Gold => 2.86%\n        typeChances[4] = BORDER_Legendary | BACKGROUND_Gold | (286 << 4);\n        // BORDERS.Legendary => BACKGROUNDS.Basic => 9.87%\n        typeChances[5] = BORDER_Legendary | BACKGROUND_Basic | (987 << 4);\n        // BORDERS.Common => BACKGROUNDS.Rainbow => 9.87%\n        typeChances[6] = BORDER_Common | BACKGROUND_Rainbow | (987 << 4);\n        // BORDERS.Epic => BACKGROUNDS.Diamond => 14.31%\n        typeChances[7] = BORDER_Epic | BACKGROUND_Diamond | (1431 << 4);\n        // BORDERS.Rare => BACKGROUNDS.Diamond => 28.61%\n        typeChances[8] = BORDER_Rare | BACKGROUND_Diamond | (2861 << 4);\n        // BORDERS.Epic => BACKGROUNDS.Gold => 28.61%\n        typeChances[9] = BORDER_Epic | BACKGROUND_Gold | (2861 << 4);\n\n        return typeChances;\n    }\n\n    // uint24 FUNCTIONS\n    function probability(uint24 data) internal pure returns (uint24) {\n        return data >> 4;\n    }\n\n    function bgAndBorder(uint24 data) internal pure returns (uint8) {\n        return uint8(data & 15);\n        //   15 => 1111\n    }\n\n    function bgBorderAndChar(uint24 data, uint8 character) internal pure returns (uint16) {\n        return uint16((data & 15) | (character<<4));\n        //   15 => 1111\n    }\n\n    function background(uint24 data) internal pure returns (uint8) {\n        return uint8(data & 3);\n        //   3 => 0011\n    }\n\n    function border(uint24 data) internal pure returns (uint8) {\n        return uint8(data & 12);\n        // 12 => 1100;\n    }\n\n    function isCapped(uint24 _card, uint32[16] memory mintedCards, uint32[16] memory cardCaps) internal pure returns (bool) {\n        return mintedCards[bgAndBorder(_card)] < cardCaps[bgAndBorder(_card)];\n    }\n\n    function isCapped(uint24 _card, uint8 character, uint32[1600] memory mintedChars, uint32[16] memory cardCaps) internal pure returns (bool) {\n        return mintedChars[bgBorderAndChar(_card, character)] < cardCaps[bgAndBorder(_card)] / 100;\n    }\n}\n",
  "sourcePath": "/Users/ilyk/projects/midgardtech/solidity/moonlift/chainwars/lootbox/contracts/helpers/InitializeData.sol",
  "compiler": {
    "name": "solc",
    "version": "0.8.10+commit.fc410830.Emscripten.clang"
  },
  "schemaVersion": "3.4.3",
  "updatedAt": "2022-02-14T10:06:15.570Z",
  "devdoc": {
    "kind": "dev",
    "methods": {},
    "version": 1
  },
  "userdoc": {
    "kind": "user",
    "methods": {},
    "version": 1
  }
}