{
  "contractName": "LinkMock",
  "abi": [
    {
      "inputs": [
        {
          "internalType": "address",
          "name": "to",
          "type": "address"
        },
        {
          "internalType": "uint256",
          "name": "",
          "type": "uint256"
        },
        {
          "internalType": "bytes",
          "name": "data",
          "type": "bytes"
        }
      ],
      "name": "transferAndCall",
      "outputs": [
        {
          "internalType": "bool",
          "name": "success",
          "type": "bool"
        }
      ],
      "stateMutability": "nonpayable",
      "type": "function"
    },
    {
      "inputs": [
        {
          "internalType": "address",
          "name": "",
          "type": "address"
        }
      ],
      "name": "balanceOf",
      "outputs": [
        {
          "internalType": "uint256",
          "name": "balance",
          "type": "uint256"
        }
      ],
      "stateMutability": "view",
      "type": "function",
      "constant": true
    }
  ],
  "bytecode": "0x608060405234801561001057600080fd5b5061028d806100206000396000f3fe608060405234801561001057600080fd5b50600436106100365760003560e01c80634000aea01461003b57806370a0823114610063575b600080fd5b61004e610049366004610144565b610085565b60405190151581526020015b60405180910390f35b6100776100713660046101cb565b50606490565b60405190815260200161005a565b6040517f21f4663500000000000000000000000000000000000000000000000000000000815260009073ffffffffffffffffffffffffffffffffffffffff8616906321f46635906100de903390879087906004016101ed565b600060405180830381600087803b1580156100f857600080fd5b505af115801561010c573d6000803e3d6000fd5b50600198975050505050505050565b803573ffffffffffffffffffffffffffffffffffffffff8116811461013f57600080fd5b919050565b6000806000806060858703121561015a57600080fd5b6101638561011b565b935060208501359250604085013567ffffffffffffffff8082111561018757600080fd5b818701915087601f83011261019b57600080fd5b8135818111156101aa57600080fd5b8860208285010111156101bc57600080fd5b95989497505060200194505050565b6000602082840312156101dd57600080fd5b6101e68261011b565b9392505050565b73ffffffffffffffffffffffffffffffffffffffff8416815260406020820152816040820152818360608301376000818301606090810191909152601f9092017fffffffffffffffffffffffffffffffffffffffffffffffffffffffffffffffe01601019291505056fea2646970667358221220044ed8725d5344a628b09f5af126ea92d65b0f04c8199fdeaff028333f1fe66664736f6c634300080a0033",
  "immutableReferences": {},
  "source": "// SPDX-License-Identifier: MIT\npragma solidity =0.8.10;\n\nimport {VRFMock} from \"./VRFMock.sol\";\n\ncontract LinkMock {\n    function transferAndCall(\n        address to,\n        uint256,\n        bytes calldata data\n    ) external returns (bool success) {\n        VRFMock(to).random(msg.sender, data);\n        return true;\n    }\n\n    function balanceOf(address) external view returns (uint256 balance) {\n        return 100;\n    }\n}\n",
  "sourcePath": "/Users/ilyk/projects/midgardtech/solidity/moonlift/chainwars/lootbox/contracts/mocks/LinkMock.sol",
  "compiler": {
    "name": "solc",
    "version": "0.8.10+commit.fc410830.Emscripten.clang"
  },
  "schemaVersion": "3.4.3",
  "updatedAt": "2022-02-14T10:06:27.025Z",
  "networkType": "ethereum",
  "devdoc": {
    "kind": "dev",
    "methods": {},
    "version": 1
  },
  "userdoc": {
    "kind": "user",
    "methods": {},
    "version": 1
  }
}