{
  "contractName": "MockNFT",
  "abi": [
    {
      "anonymous": false,
      "inputs": [
        {
          "indexed": true,
          "internalType": "address",
          "name": "account",
          "type": "address"
        },
        {
          "indexed": true,
          "internalType": "address",
          "name": "operator",
          "type": "address"
        },
        {
          "indexed": false,
          "internalType": "bool",
          "name": "approved",
          "type": "bool"
        }
      ],
      "name": "ApprovalForAll",
      "type": "event"
    },
    {
      "anonymous": false,
      "inputs": [
        {
          "indexed": true,
          "internalType": "address",
          "name": "operator",
          "type": "address"
        },
        {
          "indexed": true,
          "internalType": "address",
          "name": "from",
          "type": "address"
        },
        {
          "indexed": true,
          "internalType": "address",
          "name": "to",
          "type": "address"
        },
        {
          "indexed": false,
          "internalType": "uint256[]",
          "name": "ids",
          "type": "uint256[]"
        },
        {
          "indexed": false,
          "internalType": "uint256[]",
          "name": "values",
          "type": "uint256[]"
        }
      ],
      "name": "TransferBatch",
      "type": "event"
    },
    {
      "anonymous": false,
      "inputs": [
        {
          "indexed": true,
          "internalType": "address",
          "name": "operator",
          "type": "address"
        },
        {
          "indexed": true,
          "internalType": "address",
          "name": "from",
          "type": "address"
        },
        {
          "indexed": true,
          "internalType": "address",
          "name": "to",
          "type": "address"
        },
        {
          "indexed": false,
          "internalType": "uint256",
          "name": "id",
          "type": "uint256"
        },
        {
          "indexed": false,
          "internalType": "uint256",
          "name": "value",
          "type": "uint256"
        }
      ],
      "name": "TransferSingle",
      "type": "event"
    },
    {
      "anonymous": false,
      "inputs": [
        {
          "indexed": false,
          "internalType": "string",
          "name": "value",
          "type": "string"
        },
        {
          "indexed": true,
          "internalType": "uint256",
          "name": "id",
          "type": "uint256"
        }
      ],
      "name": "URI",
      "type": "event"
    },
    {
      "inputs": [
        {
          "internalType": "address",
          "name": "account",
          "type": "address"
        },
        {
          "internalType": "uint256",
          "name": "id",
          "type": "uint256"
        }
      ],
      "name": "balanceOf",
      "outputs": [
        {
          "internalType": "uint256",
          "name": "",
          "type": "uint256"
        }
      ],
      "stateMutability": "view",
      "type": "function"
    },
    {
      "inputs": [
        {
          "internalType": "address[]",
          "name": "accounts",
          "type": "address[]"
        },
        {
          "internalType": "uint256[]",
          "name": "ids",
          "type": "uint256[]"
        }
      ],
      "name": "balanceOfBatch",
      "outputs": [
        {
          "internalType": "uint256[]",
          "name": "",
          "type": "uint256[]"
        }
      ],
      "stateMutability": "view",
      "type": "function"
    },
    {
      "inputs": [
        {
          "internalType": "uint256",
          "name": "",
          "type": "uint256"
        }
      ],
      "name": "cardAttributes",
      "outputs": [
        {
          "internalType": "uint16",
          "name": "",
          "type": "uint16"
        }
      ],
      "stateMutability": "view",
      "type": "function"
    },
    {
      "inputs": [],
      "name": "currentTokenID",
      "outputs": [
        {
          "internalType": "uint256",
          "name": "",
          "type": "uint256"
        }
      ],
      "stateMutability": "view",
      "type": "function"
    },
    {
      "inputs": [
        {
          "internalType": "address",
          "name": "account",
          "type": "address"
        },
        {
          "internalType": "address",
          "name": "operator",
          "type": "address"
        }
      ],
      "name": "isApprovedForAll",
      "outputs": [
        {
          "internalType": "bool",
          "name": "",
          "type": "bool"
        }
      ],
      "stateMutability": "view",
      "type": "function"
    },
    {
      "inputs": [
        {
          "internalType": "address",
          "name": "from",
          "type": "address"
        },
        {
          "internalType": "address",
          "name": "to",
          "type": "address"
        },
        {
          "internalType": "uint256[]",
          "name": "ids",
          "type": "uint256[]"
        },
        {
          "internalType": "uint256[]",
          "name": "amounts",
          "type": "uint256[]"
        },
        {
          "internalType": "bytes",
          "name": "data",
          "type": "bytes"
        }
      ],
      "name": "safeBatchTransferFrom",
      "outputs": [],
      "stateMutability": "nonpayable",
      "type": "function"
    },
    {
      "inputs": [
        {
          "internalType": "address",
          "name": "from",
          "type": "address"
        },
        {
          "internalType": "address",
          "name": "to",
          "type": "address"
        },
        {
          "internalType": "uint256",
          "name": "id",
          "type": "uint256"
        },
        {
          "internalType": "uint256",
          "name": "amount",
          "type": "uint256"
        },
        {
          "internalType": "bytes",
          "name": "data",
          "type": "bytes"
        }
      ],
      "name": "safeTransferFrom",
      "outputs": [],
      "stateMutability": "nonpayable",
      "type": "function"
    },
    {
      "inputs": [
        {
          "internalType": "address",
          "name": "operator",
          "type": "address"
        },
        {
          "internalType": "bool",
          "name": "approved",
          "type": "bool"
        }
      ],
      "name": "setApprovalForAll",
      "outputs": [],
      "stateMutability": "nonpayable",
      "type": "function"
    },
    {
      "inputs": [
        {
          "internalType": "bytes4",
          "name": "interfaceId",
          "type": "bytes4"
        }
      ],
      "name": "supportsInterface",
      "outputs": [
        {
          "internalType": "bool",
          "name": "",
          "type": "bool"
        }
      ],
      "stateMutability": "view",
      "type": "function"
    },
    {
      "inputs": [
        {
          "internalType": "uint256",
          "name": "",
          "type": "uint256"
        }
      ],
      "name": "uri",
      "outputs": [
        {
          "internalType": "string",
          "name": "",
          "type": "string"
        }
      ],
      "stateMutability": "view",
      "type": "function"
    },
    {
      "inputs": [
        {
          "internalType": "uint8",
          "name": "border",
          "type": "uint8"
        },
        {
          "internalType": "uint8",
          "name": "background",
          "type": "uint8"
        },
        {
          "internalType": "uint8",
          "name": "character",
          "type": "uint8"
        }
      ],
      "name": "charToId",
      "outputs": [
        {
          "internalType": "uint256",
          "name": "",
          "type": "uint256"
        }
      ],
      "stateMutability": "view",
      "type": "function"
    },
    {
      "inputs": [
        {
          "internalType": "address",
          "name": "account",
          "type": "address"
        },
        {
          "internalType": "uint8",
          "name": "border",
          "type": "uint8"
        },
        {
          "internalType": "uint8",
          "name": "background",
          "type": "uint8"
        },
        {
          "internalType": "uint8",
          "name": "character",
          "type": "uint8"
        },
        {
          "internalType": "uint256",
          "name": "amount",
          "type": "uint256"
        },
        {
          "internalType": "bytes",
          "name": "data",
          "type": "bytes"
        }
      ],
      "name": "mintCards",
      "outputs": [],
      "stateMutability": "nonpayable",
      "type": "function"
    }
  ],
  "bytecode": "0x608060405260016005553480156200001657600080fd5b50604080516020810190915260008152620000318162000038565b5062000134565b80516200004d90600290602084019062000051565b5050565b8280546200005f90620000f7565b90600052602060002090601f016020900481019282620000835760008555620000ce565b82601f106200009e57805160ff1916838001178555620000ce565b82800160010185558215620000ce579182015b82811115620000ce578251825591602001919060010190620000b1565b50620000dc929150620000e0565b5090565b5b80821115620000dc5760008155600101620000e1565b600181811c908216806200010c57607f821691505b602082108114156200012e57634e487b7160e01b600052602260045260246000fd5b50919050565b611e8280620001446000396000f3fe608060405234801561001057600080fd5b50600436106100d35760003560e01c8063a22cb46511610081578063c5ec3a431161005b578063c5ec3a43146101e2578063e985e9c514610219578063f242432a1461026257600080fd5b8063a22cb46514610189578063b269e1cd1461019c578063bb62115e146101d957600080fd5b80632eb2c2d6116100b25780632eb2c2d6146101415780634e1273f41461015657806397255d031461017657600080fd5b8062fdd58e146100d857806301ffc9a7146100fe5780630e89341c14610121575b600080fd5b6100eb6100e6366004611555565b610275565b6040519081526020015b60405180910390f35b61011161010c3660046115b0565b610352565b60405190151581526020016100f5565b61013461012f3660046115d4565b610437565b6040516100f59190611658565b61015461014f36600461180c565b6104cb565b005b6101696101643660046118b6565b610594565b6040516100f591906119bc565b6101546101843660046119e0565b6106ec565b610154610197366004611a68565b6107bb565b6100eb6101aa366004611aa4565b60ff92831660009081526004602090815260408083209486168352938152838220929094168152925290205490565b6100eb60055481565b6102066101f03660046115d4565b60036020526000908152604090205461ffff1681565b60405161ffff90911681526020016100f5565b610111610227366004611ae7565b73ffffffffffffffffffffffffffffffffffffffff918216600090815260016020908152604080832093909416825291909152205460ff1690565b610154610270366004611b1a565b6107ca565b600073ffffffffffffffffffffffffffffffffffffffff831661031f576040517f08c379a000000000000000000000000000000000000000000000000000000000815260206004820152602b60248201527f455243313135353a2062616c616e636520717565727920666f7220746865207a60448201527f65726f206164647265737300000000000000000000000000000000000000000060648201526084015b60405180910390fd5b5060009081526020818152604080832073ffffffffffffffffffffffffffffffffffffffff949094168352929052205490565b60007fffffffff0000000000000000000000000000000000000000000000000000000082167fd9b67a260000000000000000000000000000000000000000000000000000000014806103e557507fffffffff0000000000000000000000000000000000000000000000000000000082167f0e89341c00000000000000000000000000000000000000000000000000000000145b8061043157507f01ffc9a7000000000000000000000000000000000000000000000000000000007fffffffff000000000000000000000000000000000000000000000000000000008316145b92915050565b60606002805461044690611b7f565b80601f016020809104026020016040519081016040528092919081815260200182805461047290611b7f565b80156104bf5780601f10610494576101008083540402835291602001916104bf565b820191906000526020600020905b8154815290600101906020018083116104a257829003601f168201915b50505050509050919050565b73ffffffffffffffffffffffffffffffffffffffff85163314806104f457506104f48533610227565b610580576040517f08c379a000000000000000000000000000000000000000000000000000000000815260206004820152603260248201527f455243313135353a207472616e736665722063616c6c6572206973206e6f742060448201527f6f776e6572206e6f7220617070726f76656400000000000000000000000000006064820152608401610316565b61058d858585858561088c565b5050505050565b60608151835114610627576040517f08c379a000000000000000000000000000000000000000000000000000000000815260206004820152602960248201527f455243313135353a206163636f756e747320616e6420696473206c656e67746860448201527f206d69736d6174636800000000000000000000000000000000000000000000006064820152608401610316565b6000835167ffffffffffffffff8111156106435761064361166b565b60405190808252806020026020018201604052801561066c578160200160208202803683370190505b50905060005b84518110156106e4576106b785828151811061069057610690611bd3565b60200260200101518583815181106106aa576106aa611bd3565b6020026020010151610275565b8282815181106106c9576106c9611bd3565b60209081029190910101526106dd81611c31565b9050610672565b509392505050565b60ff80861660009081526004602090815260408083208885168452825280832093871683529290522054806107a6575060058054908190600061072e83611c31565b909155505060ff86811660009081526004602081815260408084208a86168552825280842089861685528252808420869055858452600390915290912080549187901b60f016888a17909316929092177fffffffffffffffffffffffffffffffffffffffffffffffffffffffffffff00009091161790555b6107b287828585610bc6565b50505050505050565b6107c6338383610d2d565b5050565b73ffffffffffffffffffffffffffffffffffffffff85163314806107f357506107f38533610227565b61087f576040517f08c379a000000000000000000000000000000000000000000000000000000000815260206004820152602960248201527f455243313135353a2063616c6c6572206973206e6f74206f776e6572206e6f7260448201527f20617070726f76656400000000000000000000000000000000000000000000006064820152608401610316565b61058d8585858585610e81565b815183511461091d576040517f08c379a000000000000000000000000000000000000000000000000000000000815260206004820152602860248201527f455243313135353a2069647320616e6420616d6f756e7473206c656e6774682060448201527f6d69736d617463680000000000000000000000000000000000000000000000006064820152608401610316565b73ffffffffffffffffffffffffffffffffffffffff84166109c0576040517f08c379a000000000000000000000000000000000000000000000000000000000815260206004820152602560248201527f455243313135353a207472616e7366657220746f20746865207a65726f20616460448201527f64726573730000000000000000000000000000000000000000000000000000006064820152608401610316565b3360005b8451811015610b315760008582815181106109e1576109e1611bd3565b6020026020010151905060008583815181106109ff576109ff611bd3565b6020908102919091018101516000848152808352604080822073ffffffffffffffffffffffffffffffffffffffff8e168352909352919091205490915081811015610acc576040517f08c379a000000000000000000000000000000000000000000000000000000000815260206004820152602a60248201527f455243313135353a20696e73756666696369656e742062616c616e636520666f60448201527f72207472616e73666572000000000000000000000000000000000000000000006064820152608401610316565b60008381526020818152604080832073ffffffffffffffffffffffffffffffffffffffff8e8116855292528083208585039055908b16825281208054849290610b16908490611c6a565b9250508190555050505080610b2a90611c31565b90506109c4565b508473ffffffffffffffffffffffffffffffffffffffff168673ffffffffffffffffffffffffffffffffffffffff168273ffffffffffffffffffffffffffffffffffffffff167f4a39dc06d4c0dbc64b70af90fd698a233a518aa5d07e595d983b8c0526c8f7fb8787604051610ba8929190611c82565b60405180910390a4610bbe8187878787876110a9565b505050505050565b73ffffffffffffffffffffffffffffffffffffffff8416610c69576040517f08c379a000000000000000000000000000000000000000000000000000000000815260206004820152602160248201527f455243313135353a206d696e7420746f20746865207a65726f2061646472657360448201527f73000000000000000000000000000000000000000000000000000000000000006064820152608401610316565b33610c8381600087610c7a88611334565b61058d88611334565b60008481526020818152604080832073ffffffffffffffffffffffffffffffffffffffff8916845290915281208054859290610cc0908490611c6a565b9091555050604080518581526020810185905273ffffffffffffffffffffffffffffffffffffffff80881692600092918516917fc3d58168c5ae7397731d063d5bbf3d657854427343f4c083240f7aacaa2d0f62910160405180910390a461058d8160008787878761137f565b8173ffffffffffffffffffffffffffffffffffffffff168373ffffffffffffffffffffffffffffffffffffffff161415610de9576040517f08c379a000000000000000000000000000000000000000000000000000000000815260206004820152602960248201527f455243313135353a2073657474696e6720617070726f76616c2073746174757360448201527f20666f722073656c6600000000000000000000000000000000000000000000006064820152608401610316565b73ffffffffffffffffffffffffffffffffffffffff83811660008181526001602090815260408083209487168084529482529182902080547fffffffffffffffffffffffffffffffffffffffffffffffffffffffffffffff001686151590811790915591519182527f17307eab39ab6107e8899845ad3d59bd9653f200f220920489ca2b5937696c31910160405180910390a3505050565b73ffffffffffffffffffffffffffffffffffffffff8416610f24576040517f08c379a000000000000000000000000000000000000000000000000000000000815260206004820152602560248201527f455243313135353a207472616e7366657220746f20746865207a65726f20616460448201527f64726573730000000000000000000000000000000000000000000000000000006064820152608401610316565b33610f34818787610c7a88611334565b60008481526020818152604080832073ffffffffffffffffffffffffffffffffffffffff8a16845290915290205483811015610ff2576040517f08c379a000000000000000000000000000000000000000000000000000000000815260206004820152602a60248201527f455243313135353a20696e73756666696369656e742062616c616e636520666f60448201527f72207472616e73666572000000000000000000000000000000000000000000006064820152608401610316565b60008581526020818152604080832073ffffffffffffffffffffffffffffffffffffffff8b811685529252808320878503905590881682528120805486929061103c908490611c6a565b9091555050604080518681526020810186905273ffffffffffffffffffffffffffffffffffffffff808916928a821692918616917fc3d58168c5ae7397731d063d5bbf3d657854427343f4c083240f7aacaa2d0f62910160405180910390a46107b282888888888861137f565b73ffffffffffffffffffffffffffffffffffffffff84163b15610bbe576040517fbc197c8100000000000000000000000000000000000000000000000000000000815273ffffffffffffffffffffffffffffffffffffffff85169063bc197c81906111209089908990889088908890600401611cb0565b6020604051808303816000875af1925050508015611179575060408051601f3d9081017fffffffffffffffffffffffffffffffffffffffffffffffffffffffffffffffe016820190925261117691810190611d1b565b60015b61126357611185611d38565b806308c379a014156111d9575061119a611d54565b806111a557506111db565b806040517f08c379a00000000000000000000000000000000000000000000000000000000081526004016103169190611658565b505b6040517f08c379a000000000000000000000000000000000000000000000000000000000815260206004820152603460248201527f455243313135353a207472616e7366657220746f206e6f6e204552433131353560448201527f526563656976657220696d706c656d656e7465720000000000000000000000006064820152608401610316565b7fffffffff0000000000000000000000000000000000000000000000000000000081167fbc197c8100000000000000000000000000000000000000000000000000000000146107b2576040517f08c379a000000000000000000000000000000000000000000000000000000000815260206004820152602860248201527f455243313135353a204552433131353552656365697665722072656a6563746560448201527f6420746f6b656e730000000000000000000000000000000000000000000000006064820152608401610316565b6040805160018082528183019092526060916000919060208083019080368337019050509050828160008151811061136e5761136e611bd3565b602090810291909101015292915050565b73ffffffffffffffffffffffffffffffffffffffff84163b15610bbe576040517ff23a6e6100000000000000000000000000000000000000000000000000000000815273ffffffffffffffffffffffffffffffffffffffff85169063f23a6e61906113f69089908990889088908890600401611dfc565b6020604051808303816000875af192505050801561144f575060408051601f3d9081017fffffffffffffffffffffffffffffffffffffffffffffffffffffffffffffffe016820190925261144c91810190611d1b565b60015b61145b57611185611d38565b7fffffffff0000000000000000000000000000000000000000000000000000000081167ff23a6e6100000000000000000000000000000000000000000000000000000000146107b2576040517f08c379a000000000000000000000000000000000000000000000000000000000815260206004820152602860248201527f455243313135353a204552433131353552656365697665722072656a6563746560448201527f6420746f6b656e730000000000000000000000000000000000000000000000006064820152608401610316565b803573ffffffffffffffffffffffffffffffffffffffff8116811461155057600080fd5b919050565b6000806040838503121561156857600080fd5b6115718361152c565b946020939093013593505050565b7fffffffff00000000000000000000000000000000000000000000000000000000811681146115ad57600080fd5b50565b6000602082840312156115c257600080fd5b81356115cd8161157f565b9392505050565b6000602082840312156115e657600080fd5b5035919050565b6000815180845260005b81811015611613576020818501810151868301820152016115f7565b81811115611625576000602083870101525b50601f017fffffffffffffffffffffffffffffffffffffffffffffffffffffffffffffffe0169290920160200192915050565b6020815260006115cd60208301846115ed565b7f4e487b7100000000000000000000000000000000000000000000000000000000600052604160045260246000fd5b7fffffffffffffffffffffffffffffffffffffffffffffffffffffffffffffffe0601f830116810181811067ffffffffffffffff821117156116de576116de61166b565b6040525050565b600067ffffffffffffffff8211156116ff576116ff61166b565b5060051b60200190565b600082601f83011261171a57600080fd5b81356020611727826116e5565b604051611734828261169a565b83815260059390931b850182019282810191508684111561175457600080fd5b8286015b8481101561176f5780358352918301918301611758565b509695505050505050565b600082601f83011261178b57600080fd5b813567ffffffffffffffff8111156117a5576117a561166b565b6040516117da60207fffffffffffffffffffffffffffffffffffffffffffffffffffffffffffffffe0601f850116018261169a565b8181528460208386010111156117ef57600080fd5b816020850160208301376000918101602001919091529392505050565b600080600080600060a0868803121561182457600080fd5b61182d8661152c565b945061183b6020870161152c565b9350604086013567ffffffffffffffff8082111561185857600080fd5b61186489838a01611709565b9450606088013591508082111561187a57600080fd5b61188689838a01611709565b9350608088013591508082111561189c57600080fd5b506118a98882890161177a565b9150509295509295909350565b600080604083850312156118c957600080fd5b823567ffffffffffffffff808211156118e157600080fd5b818501915085601f8301126118f557600080fd5b81356020611902826116e5565b60405161190f828261169a565b83815260059390931b850182019282810191508984111561192f57600080fd5b948201945b83861015611954576119458661152c565b82529482019490820190611934565b9650508601359250508082111561196a57600080fd5b5061197785828601611709565b9150509250929050565b600081518084526020808501945080840160005b838110156119b157815187529582019590820190600101611995565b509495945050505050565b6020815260006115cd6020830184611981565b803560ff8116811461155057600080fd5b60008060008060008060c087890312156119f957600080fd5b611a028761152c565b9550611a10602088016119cf565b9450611a1e604088016119cf565b9350611a2c606088016119cf565b92506080870135915060a087013567ffffffffffffffff811115611a4f57600080fd5b611a5b89828a0161177a565b9150509295509295509295565b60008060408385031215611a7b57600080fd5b611a848361152c565b915060208301358015158114611a9957600080fd5b809150509250929050565b600080600060608486031215611ab957600080fd5b611ac2846119cf565b9250611ad0602085016119cf565b9150611ade604085016119cf565b90509250925092565b60008060408385031215611afa57600080fd5b611b038361152c565b9150611b116020840161152c565b90509250929050565b600080600080600060a08688031215611b3257600080fd5b611b3b8661152c565b9450611b496020870161152c565b93506040860135925060608601359150608086013567ffffffffffffffff811115611b7357600080fd5b6118a98882890161177a565b600181811c90821680611b9357607f821691505b60208210811415611bcd577f4e487b7100000000000000000000000000000000000000000000000000000000600052602260045260246000fd5b50919050565b7f4e487b7100000000000000000000000000000000000000000000000000000000600052603260045260246000fd5b7f4e487b7100000000000000000000000000000000000000000000000000000000600052601160045260246000fd5b60007fffffffffffffffffffffffffffffffffffffffffffffffffffffffffffffffff821415611c6357611c63611c02565b5060010190565b60008219821115611c7d57611c7d611c02565b500190565b604081526000611c956040830185611981565b8281036020840152611ca78185611981565b95945050505050565b600073ffffffffffffffffffffffffffffffffffffffff808816835280871660208401525060a06040830152611ce960a0830186611981565b8281036060840152611cfb8186611981565b90508281036080840152611d0f81856115ed565b98975050505050505050565b600060208284031215611d2d57600080fd5b81516115cd8161157f565b600060033d1115611d515760046000803e5060005160e01c5b90565b600060443d1015611d625790565b6040517ffffffffffffffffffffffffffffffffffffffffffffffffffffffffffffffffc803d016004833e81513d67ffffffffffffffff8160248401118184111715611db057505050505090565b8285019150815181811115611dc85750505050505090565b843d8701016020828501011115611de25750505050505090565b611df16020828601018761169a565b509095945050505050565b600073ffffffffffffffffffffffffffffffffffffffff808816835280871660208401525084604083015283606083015260a06080830152611e4160a08301846115ed565b97965050505050505056fea26469706673582212204765b2cbd8c67a1842af5a484a27cced8b506c37f4660f79d62908ed68398c9564736f6c634300080a0033",
  "immutableReferences": {},
  "source": "// SPDX-License-Identifier: MIT\npragma solidity =0.8.10;\n\nimport {ICWERC1155} from \"../ICWERC1155.sol\";\nimport {ERC1155} from '@openzeppelin/contracts/token/ERC1155/ERC1155.sol';\n\ncontract MockNFT is ICWERC1155, ERC1155(\"\") {\n    mapping(uint256 => uint16) public cardAttributes;\n    mapping(uint8 => mapping(uint8 => mapping(uint8 => uint256))) toId;\n    uint256 public override currentTokenID = 1;\n\n    function charToId(uint8 border, uint8 background, uint8 character) public view returns(uint256) {\n        return toId[border][background][character];\n    }\n\n    function mintCards(\n        address account,\n        uint8 border,\n        uint8 background,\n        uint8 character,\n        uint256 amount,\n        bytes memory data\n    ) external {\n        uint256 tokenId = toId[border][background][character];\n        if (tokenId == 0) {\n            tokenId = currentTokenID;\n            currentTokenID++;\n            toId[border][background][character] = tokenId;\n            cardAttributes[tokenId] = uint16(border | background | (character << 4));\n        }\n\n        _mint(account, tokenId, amount, data);\n    }\n}\n",
  "sourcePath": "/Users/ilyk/projects/midgardtech/solidity/moonlift/chainwars/lootbox/contracts/mocks/MockNFT.sol",
  "compiler": {
    "name": "solc",
    "version": "0.8.10+commit.fc410830.Emscripten.clang"
  },
  "schemaVersion": "3.4.3",
  "updatedAt": "2022-02-14T10:06:15.614Z",
  "devdoc": {
    "kind": "dev",
    "methods": {
      "balanceOf(address,uint256)": {
        "details": "See {IERC1155-balanceOf}. Requirements: - `account` cannot be the zero address."
      },
      "balanceOfBatch(address[],uint256[])": {
        "details": "See {IERC1155-balanceOfBatch}. Requirements: - `accounts` and `ids` must have the same length."
      },
      "isApprovedForAll(address,address)": {
        "details": "See {IERC1155-isApprovedForAll}."
      },
      "safeBatchTransferFrom(address,address,uint256[],uint256[],bytes)": {
        "details": "See {IERC1155-safeBatchTransferFrom}."
      },
      "safeTransferFrom(address,address,uint256,uint256,bytes)": {
        "details": "See {IERC1155-safeTransferFrom}."
      },
      "setApprovalForAll(address,bool)": {
        "details": "See {IERC1155-setApprovalForAll}."
      },
      "supportsInterface(bytes4)": {
        "details": "See {IERC165-supportsInterface}."
      },
      "uri(uint256)": {
        "details": "See {IERC1155MetadataURI-uri}. This implementation returns the same URI for *all* token types. It relies on the token type ID substitution mechanism https://eips.ethereum.org/EIPS/eip-1155#metadata[defined in the EIP]. Clients calling this function must replace the `\\{id\\}` substring with the actual token type ID."
      }
    },
    "version": 1
  },
  "userdoc": {
    "kind": "user",
    "methods": {},
    "version": 1
  }
}