{
  "contractName": "RandomNumberConsumer",
  "abi": [
    {
      "inputs": [
        {
          "internalType": "address",
          "name": "_vrfCoordinator",
          "type": "address"
        },
        {
          "internalType": "address",
          "name": "_link",
          "type": "address"
        },
        {
          "internalType": "bytes32",
          "name": "_keyHash",
          "type": "bytes32"
        },
        {
          "internalType": "uint256",
          "name": "_linkFee",
          "type": "uint256"
        }
      ],
      "stateMutability": "nonpayable",
      "type": "constructor"
    },
    {
      "anonymous": false,
      "inputs": [
        {
          "indexed": true,
          "internalType": "address",
          "name": "previousOwner",
          "type": "address"
        },
        {
          "indexed": true,
          "internalType": "address",
          "name": "newOwner",
          "type": "address"
        }
      ],
      "name": "OwnershipTransferred",
      "type": "event"
    },
    {
      "anonymous": false,
      "inputs": [
        {
          "indexed": false,
          "internalType": "bytes32",
          "name": "requestId",
          "type": "bytes32"
        }
      ],
      "name": "RandomnessFulfilled",
      "type": "event"
    },
    {
      "anonymous": false,
      "inputs": [
        {
          "indexed": false,
          "internalType": "address",
          "name": "sender",
          "type": "address"
        },
        {
          "indexed": false,
          "internalType": "bytes32",
          "name": "requestId",
          "type": "bytes32"
        }
      ],
      "name": "RandomnessInitiated",
      "type": "event"
    },
    {
      "inputs": [],
      "name": "owner",
      "outputs": [
        {
          "internalType": "address",
          "name": "",
          "type": "address"
        }
      ],
      "stateMutability": "view",
      "type": "function"
    },
    {
      "inputs": [
        {
          "internalType": "bytes32",
          "name": "requestId",
          "type": "bytes32"
        },
        {
          "internalType": "uint256",
          "name": "randomness",
          "type": "uint256"
        }
      ],
      "name": "rawFulfillRandomness",
      "outputs": [],
      "stateMutability": "nonpayable",
      "type": "function"
    },
    {
      "inputs": [],
      "name": "renounceOwnership",
      "outputs": [],
      "stateMutability": "nonpayable",
      "type": "function"
    },
    {
      "inputs": [
        {
          "internalType": "address",
          "name": "newOwner",
          "type": "address"
        }
      ],
      "name": "transferOwnership",
      "outputs": [],
      "stateMutability": "nonpayable",
      "type": "function"
    },
    {
      "inputs": [],
      "name": "getRandomNumber",
      "outputs": [
        {
          "internalType": "bytes32",
          "name": "requestId",
          "type": "bytes32"
        }
      ],
      "stateMutability": "nonpayable",
      "type": "function"
    },
    {
      "inputs": [
        {
          "internalType": "uint256",
          "name": "amount",
          "type": "uint256"
        }
      ],
      "name": "withdrawLink",
      "outputs": [],
      "stateMutability": "nonpayable",
      "type": "function"
    }
  ],
  "bytecode": "0x60c060405234801561001057600080fd5b50604051610b60380380610b6083398101604081905261002f916100ca565b6001600160a01b0384811660a052831660805261004b3361005c565b6002919091556003555061010d9050565b600180546001600160a01b038381166001600160a01b0319831681179093556040519116919082907f8be0079c531659141344cd1fd0a4f28419497f9722a3daafe3b4186f6b6457e090600090a35050565b80516001600160a01b03811681146100c557600080fd5b919050565b600080600080608085870312156100e057600080fd5b6100e9856100ae565b93506100f7602086016100ae565b6040860151606090960151949790965092505050565b60805160a051610a19610147600039600081816102e30152610712015260008181610245015281816103be01526106d60152610a196000f3fe608060405234801561001057600080fd5b50600436106100725760003560e01c806394985ddd1161005057806394985ddd146100c1578063dbdff2c1146100d4578063f2fde38b146100ea57600080fd5b8063715018a6146100775780637a8042bd146100815780638da5cb5b14610094575b600080fd5b61007f6100fd565b005b61007f61008f366004610859565b61018f565b60015460405173ffffffffffffffffffffffffffffffffffffffff90911681526020015b60405180910390f35b61007f6100cf366004610872565b6102cb565b6100dc610374565b6040519081526020016100b8565b61007f6100f8366004610894565b6104dc565b60015473ffffffffffffffffffffffffffffffffffffffff163314610183576040517f08c379a000000000000000000000000000000000000000000000000000000000815260206004820181905260248201527f4f776e61626c653a2063616c6c6572206973206e6f7420746865206f776e657260448201526064015b60405180910390fd5b61018d600061060c565b565b60015473ffffffffffffffffffffffffffffffffffffffff163314610210576040517f08c379a000000000000000000000000000000000000000000000000000000000815260206004820181905260248201527f4f776e61626c653a2063616c6c6572206973206e6f7420746865206f776e6572604482015260640161017a565b6040517fa9059cbb000000000000000000000000000000000000000000000000000000008152336004820152602481018290527f000000000000000000000000000000000000000000000000000000000000000073ffffffffffffffffffffffffffffffffffffffff169063a9059cbb906044016020604051808303816000875af11580156102a3573d6000803e3d6000fd5b505050506040513d601f19601f820116820180604052508101906102c791906108d1565b5050565b3373ffffffffffffffffffffffffffffffffffffffff7f0000000000000000000000000000000000000000000000000000000000000000161461036a576040517f08c379a000000000000000000000000000000000000000000000000000000000815260206004820152601f60248201527f4f6e6c7920565246436f6f7264696e61746f722063616e2066756c66696c6c00604482015260640161017a565b6102c78282610683565b6003546040517f70a082310000000000000000000000000000000000000000000000000000000081523060048201526000919073ffffffffffffffffffffffffffffffffffffffff7f000000000000000000000000000000000000000000000000000000000000000016906370a0823190602401602060405180830381865afa158015610405573d6000803e3d6000fd5b505050506040513d601f19601f8201168201806040525081019061042991906108f3565b10156104b7576040517f08c379a000000000000000000000000000000000000000000000000000000000815260206004820152602b60248201527f4e6f7420656e6f756768204c494e4b202d2066696c6c20636f6e74726163742060448201527f7769746820666175636574000000000000000000000000000000000000000000606482015260840161017a565b6104c56002546003546106d2565b336000908152600560205260409020819055919050565b60015473ffffffffffffffffffffffffffffffffffffffff16331461055d576040517f08c379a000000000000000000000000000000000000000000000000000000000815260206004820181905260248201527f4f776e61626c653a2063616c6c6572206973206e6f7420746865206f776e6572604482015260640161017a565b73ffffffffffffffffffffffffffffffffffffffff8116610600576040517f08c379a000000000000000000000000000000000000000000000000000000000815260206004820152602660248201527f4f776e61626c653a206e6577206f776e657220697320746865207a65726f206160448201527f6464726573730000000000000000000000000000000000000000000000000000606482015260840161017a565b6106098161060c565b50565b6001805473ffffffffffffffffffffffffffffffffffffffff8381167fffffffffffffffffffffffff0000000000000000000000000000000000000000831681179093556040519116919082907f8be0079c531659141344cd1fd0a4f28419497f9722a3daafe3b4186f6b6457e090600090a35050565b60008281526004602052604090819020829055517fa312c4217fec2a5d353039350081a0149ed918efd6ec43d7f0e8a425f0715f15906106c69084815260200190565b60405180910390a15050565b60007f000000000000000000000000000000000000000000000000000000000000000073ffffffffffffffffffffffffffffffffffffffff16634000aea07f00000000000000000000000000000000000000000000000000000000000000008486600060405160200161074f929190918252602082015260400190565b6040516020818303038152906040526040518463ffffffff1660e01b815260040161077c9392919061090c565b6020604051808303816000875af115801561079b573d6000803e3d6000fd5b505050506040513d601f19601f820116820180604052508101906107bf91906108d1565b5060008381526020818152604080832054815180840188905280830185905230606082015260808082018390528351808303909101815260a0909101909252815191830191909120868452929091526108199060016109a4565b6000858152602081815260409182902092909255805180830187905280820184905281518082038301815260609091019091528051910120949350505050565b60006020828403121561086b57600080fd5b5035919050565b6000806040838503121561088557600080fd5b50508035926020909101359150565b6000602082840312156108a657600080fd5b813573ffffffffffffffffffffffffffffffffffffffff811681146108ca57600080fd5b9392505050565b6000602082840312156108e357600080fd5b815180151581146108ca57600080fd5b60006020828403121561090557600080fd5b5051919050565b73ffffffffffffffffffffffffffffffffffffffff8416815260006020848184015260606040840152835180606085015260005b8181101561095c57858101830151858201608001528201610940565b8181111561096e576000608083870101525b50601f017fffffffffffffffffffffffffffffffffffffffffffffffffffffffffffffffe0169290920160800195945050505050565b600082198211156109de577f4e487b7100000000000000000000000000000000000000000000000000000000600052601160045260246000fd5b50019056fea2646970667358221220fd892d93c90993caed9392851dd25ed9c2852762df0edc140b690b3b7e94d64a64736f6c634300080a0033",
  "immutableReferences": {
    "73": [
      {
        "length": 32,
        "start": 581
      },
      {
        "length": 32,
        "start": 958
      },
      {
        "length": 32,
        "start": 1750
      }
    ],
    "75": [
      {
        "length": 32,
        "start": 739
      },
      {
        "length": 32,
        "start": 1810
      }
    ]
  },
  "source": "// SPDX-License-Identifier: MIT\npragma solidity =0.8.10;\n\nimport \"@chainlink/contracts/src/v0.8/VRFConsumerBase.sol\";\nimport \"@openzeppelin/contracts/access/Ownable.sol\";\n\n/**\n * THIS IS AN EXAMPLE CONTRACT WHICH USES HARDCODED VALUES FOR CLARITY.\n * PLEASE DO NOT USE THIS CODE IN PRODUCTION.\n */\n\n/**\n * Request testnet LINK and ETH here: https://faucets.chain.link/\n * Find information on LINK Token Contracts and get the latest ETH and LINK faucets here: https://docs.chain.link/docs/link-token-contracts/\n */\n\ncontract RandomNumberConsumer is VRFConsumerBase, Ownable {\n    bytes32 internal keyHash;\n    uint256 internal fee;\n\n    mapping(bytes32 => uint256) internal requestIdToRandomNumber;\n    mapping(address => bytes32) internal addressToRequestId;\n\n    event RandomnessInitiated(address sender, bytes32 requestId);\n    event RandomnessFulfilled(bytes32 requestId);\n\n    /**\n     * Constructor inherits VRFConsumerBase\n     */\n    constructor(address _vrfCoordinator, address _link, bytes32 _keyHash, uint256 _linkFee)\n    VRFConsumerBase(_vrfCoordinator, _link) {\n        keyHash = _keyHash;\n        fee = _linkFee;\n    }\n\n    /**\n     * Requests randomness\n     */\n    function getRandomNumber() external returns (bytes32 requestId) {\n        require(LINK.balanceOf(address(this)) >= fee, \"Not enough LINK - fill contract with faucet\");\n        requestId = requestRandomness(keyHash, fee);\n        addressToRequestId[msg.sender] = requestId;\n    }\n\n    function fulfillRandomness(bytes32 requestId, uint256 randomness) internal override {\n        requestIdToRandomNumber[requestId] = randomness;\n        emit RandomnessFulfilled(requestId);\n    }\n\n    function withdrawLink(uint256 amount) external onlyOwner {\n        LINK.transfer(msg.sender, amount);\n    }\n}\n",
  "sourcePath": "/Users/ilyk/projects/midgardtech/solidity/moonlift/chainwars/lootbox/contracts/libs/RandomNumberConsumer.sol",
  "compiler": {
    "name": "solc",
    "version": "0.8.10+commit.fc410830.Emscripten.clang"
  },
  "schemaVersion": "3.4.3",
  "updatedAt": "2022-02-14T10:06:15.578Z",
  "devdoc": {
    "kind": "dev",
    "methods": {
      "owner()": {
        "details": "Returns the address of the current owner."
      },
      "renounceOwnership()": {
        "details": "Leaves the contract without owner. It will not be possible to call `onlyOwner` functions anymore. Can only be called by the current owner. NOTE: Renouncing ownership will leave the contract without an owner, thereby removing any functionality that is only available to the owner."
      },
      "transferOwnership(address)": {
        "details": "Transfers ownership of the contract to a new account (`newOwner`). Can only be called by the current owner."
      }
    },
    "version": 1
  },
  "userdoc": {
    "kind": "user",
    "methods": {
      "constructor": {
        "notice": "Constructor inherits VRFConsumerBase"
      },
      "getRandomNumber()": {
        "notice": "Requests randomness"
      }
    },
    "notice": "Request testnet LINK and ETH here: https://faucets.chain.link/ Find information on LINK Token Contracts and get the latest ETH and LINK faucets here: https://docs.chain.link/docs/link-token-contracts/",
    "version": 1
  }
}