{
  "contractName": "VRFMock",
  "abi": [
    {
      "inputs": [],
      "name": "randomValue",
      "outputs": [
        {
          "internalType": "uint256",
          "name": "",
          "type": "uint256"
        }
      ],
      "stateMutability": "view",
      "type": "function",
      "constant": true
    },
    {
      "inputs": [
        {
          "internalType": "uint256",
          "name": "_randomValue",
          "type": "uint256"
        }
      ],
      "name": "setRandom",
      "outputs": [],
      "stateMutability": "nonpayable",
      "type": "function"
    },
    {
      "inputs": [
        {
          "internalType": "address",
          "name": "to",
          "type": "address"
        },
        {
          "internalType": "bytes",
          "name": "data",
          "type": "bytes"
        }
      ],
      "name": "random",
      "outputs": [],
      "stateMutability": "nonpayable",
      "type": "function"
    }
  ],
  "bytecode": "0x6080604052602a60005534801561001557600080fd5b50610334806100256000396000f3fe608060405234801561001057600080fd5b50600436106100415760003560e01c806321f4663514610046578063276801ec1461005b578063729e7cf614610076575b600080fd5b6100596100543660046101e6565b610089565b005b61006460005481565b60405190815260200160405180910390f35b610059610084366004610284565b600055565b60006100978284018461029d565b50600081815260016020818152604080842054815180840187905280830186905273ffffffffffffffffffffffffffffffffffffffff8b16606082015260808082018390528351808303909101815260a09091019092528151918301919091209385905290829052929350909161010d916102bf565b6000838152600160205260408120919091556101508383604080516020808201949094528082019290925280518083038201815260609092019052805191012090565b6000546040517f94985ddd00000000000000000000000000000000000000000000000000000000815260048101839052602481019190915290915073ffffffffffffffffffffffffffffffffffffffff8716906394985ddd90604401600060405180830381600087803b1580156101c657600080fd5b505af11580156101da573d6000803e3d6000fd5b50505050505050505050565b6000806000604084860312156101fb57600080fd5b833573ffffffffffffffffffffffffffffffffffffffff8116811461021f57600080fd5b9250602084013567ffffffffffffffff8082111561023c57600080fd5b818601915086601f83011261025057600080fd5b81358181111561025f57600080fd5b87602082850101111561027157600080fd5b6020830194508093505050509250925092565b60006020828403121561029657600080fd5b5035919050565b600080604083850312156102b057600080fd5b50508035926020909101359150565b600082198211156102f9577f4e487b7100000000000000000000000000000000000000000000000000000000600052601160045260246000fd5b50019056fea264697066735822122009acf73755fe2c4ff7bb39b13f427243fe8f813451968a908015917075d6346364736f6c634300080a0033",
  "immutableReferences": {},
  "source": "// SPDX-License-Identifier: MIT\npragma solidity =0.8.10;\n\nimport {VRFConsumerBase} from \"@chainlink/contracts/src/v0.8/VRFConsumerBase.sol\";\nimport {VRFRequestIDBase} from \"@chainlink/contracts/src/v0.8/VRFRequestIDBase.sol\";\n\ncontract VRFMock is VRFRequestIDBase {\n    uint256 public randomValue = 42;\n    mapping(bytes32 => uint256) private nonces;\n\n    function setRandom(uint256 _randomValue) external {\n        randomValue = _randomValue;\n    }\n\n    function random(address to, bytes calldata data) external {\n        bytes32 _keyHash;\n        (_keyHash,) = abi.decode(data, (bytes32, uint256));\n        uint256 vRFSeed = makeVRFInputSeed(_keyHash, 0, to, nonces[_keyHash]);\n        nonces[_keyHash] = nonces[_keyHash] + 1;\n        bytes32 requestId = makeRequestId(_keyHash, vRFSeed);\n\n        VRFConsumerBase(to).rawFulfillRandomness(requestId, randomValue);\n    }\n}\n",
  "sourcePath": "/Users/ilyk/projects/midgardtech/solidity/moonlift/chainwars/lootbox/contracts/mocks/VRFMock.sol",
  "compiler": {
    "name": "solc",
    "version": "0.8.10+commit.fc410830.Emscripten.clang"
  },
  "schemaVersion": "3.4.3",
  "updatedAt": "2022-02-14T10:06:27.016Z",
  "networkType": "ethereum",
  "devdoc": {
    "kind": "dev",
    "methods": {},
    "version": 1
  },
  "userdoc": {
    "kind": "user",
    "methods": {},
    "version": 1
  }
}